S00D00004E6F6465312E7372656360
S11300000C94B4010C94D1010C94D1010C94D10141
S11300100C94D1010C94D1010C94D1010C94D10114
S11300200C94D1010C94D1010C94D1010C94D10104
S11300300C94D1010C94D1010C94D1010C94D101F4
S11300400C94D1010C94D1010C94D1010C94D101E4
S11300500C94D1010C94D1010C94D1010C94D101D4
S11300600C94D1010C94D1010C94D1010C94D101C4
S1130070000000000000000000065F5F06000000B2
S11300800007070007070000147F7F147F7F140018
S1130090242E6B6B3A120000466630180C66620020
S11300A0307A4F5D377A48000407030000000000EF
S11300B0001C3E63410000000041633E1C00000040
S11300C0082A3E1C1C3E2A0808083E3E0808000078
S11300D000A0E0600000000008080808080800000C
S11300E000006060000000006030180C060301008E
S11300F03E7F594D7F3E000042427F7F40400000DA
S1130100627359496F660000226349497F360000D3
S1130110181C16137F7F1000276745457D390000A2
S11301203C7E4B4979300000036371190F070000CE
S1130130367F49497F360000064F49693F1E00005B
S113014000006C6C0000000000A0EC6C00000000DB
S1130150081C366341000000141414141414000025
S1130160004163361C080000020351590F060000C9
S11301703E7F415D5D1F1E007C7E13137E7C00006C
S1130180417F7F49497F36001C3E63414163220021
S1130190417F7F41637F1C00417F7F495D41630054
S11301A0417F7F491D0103001C3E6341517372006E
S11301B07F7F08087F7F000000417F7F41000000AF
S11301C0307040417F3F0100417F7F081C7763000E
S11301D0417F7F41406070007F7F060C067F7F0077
S11301E07F7F060C187F7F001C3E6341633E1C002A
S11301F0417F7F49090F06001E3F21717F5E000089
S1130200417F7F19396F460026674D597B320000C4
S113021003417F7F410300007F7F40407F7F0000D8
S11302201F3F60603F1F00007F7F3018307F7F00DA
S113023063771C081C776300074F78784F0700002A
S11302406773594D47637100007F7F41410000008F
S11302500103060C183060000041417F7F0000005C
S1130260080C0603060C0800808080808080808053
S11302700000030704000000207454543C7840003C
S1130280413F7F44447C3800387C44446C2800005F
S1130290307848493F7F4000387C54545C18000053
S11302A0487E7F490302000098BCA4A4F87C0400A3
S11302B0417F7F08047C780000447D7D400000007D
S11302C040C484FD7D000000417F7F10386C4400F1
S11302D000417F7F400000007C7C0C180C7C78007F
S11302E07C7C04047C780000387C44447C38000026
S11302F084FCF8A4243C1800183C24A4F8FC8400D2
S1130300447C78441C180000485C54547424000055
S113031000043E7F442400003C7C40403C7C400080
S11303201C3C60603C1C00003C7C6030607C3C00F9
S1130330446C3810386C44009CBCA0A0FC7C0000C9
S11303404C64745C4C64000008083E774141000032
S113035000000077770000004141773E0808000064
S1130360020301030203010011241FBECFEFD4E0F6
S1130370DEBFCDBF12E0A0E0B1E0E0EEF9E102C0E3
S113038005900D92A230B107D9F722E0A2E0B2E0C5
S113039001C01D92A23FB207E1F70E94A2060C948D
S11303A0EE0C0C9400008330910539F084309105F3
S11303B031F0029731F084E005C086E003C087E0A5
S11303C001C085E0E0910601F091070180838FEF81
S11303D09FE20197F1F700C00000E0910601F0915F
S11303E00701808190E00895482F60EE8FE00E941D
S11303F0AB0308950E94D10380E00E94F4010895A4
S1130400EF92FF920F931F93CF93DF937C01FC0134
S113041060816295660F607E82E30E948703F70124
S1130420608166956695669581E30E948703F7016E
S1130430618185E30E948703F7018181882399F014
S113044087010E5F1F4FC0E0D0E0F80161918F017A
S11304508C2F8A5C0E9487032196F701218130E06A
S1130460C217D30794F381E80E949D03DF91CF91D3
S11304701F910F91FF90EF9008951F93CF93DF93F7
S1130480EC018CE20E9473038FEF9FE20197F1F776
S113049000C0000081E60E947303182F82E60E94C8
S11304A07303110F110F110F829586958770182B06
S11304B0188385E60E9473038F708983882369F00B
S11304C010E086E6810F0E947303FE01E10FF11D27
S11304D082831F5F89811817A0F340E061E08CE2FA
S11304E00E94AB03DF91CF911F9108954F925F92C9
S11304F06F927F92AF92BF92CF92DF92EF92FF9270
S11305000F931F93CF93DF9300D000D0CDB7DEB706
S113051069837A838B839C83C801B7010E94D508C1
S11305202B013C0120E030E0A9010E943A0981112D
S11305300CC020E030E040E05FE3C601B5010E945A
S1130540890A0E94A609CB0125C0A3019201C60114
S1130550B5010E943E0929813A814B815C810E9448
S1130560890A0E94A6092B013C01882777FD809502
S1130570982F0E94D9099B01AC01C601B5010E94C4
S11305803A09882334F4C601B5010E94A609CB01B7
S113059001C0C2010F900F900F900F90DF91CF9187
S11305A01F910F91FF90EF90DF90CF90BF90AF908D
S11305B07F906F905F904F9008952F923F924F924B
S11305C05F926F927F928F929F92AF92BF92CF92DF
S11305D0DF92EF92FF920F931F93CF93DF9300D09C
S11305E000D000D0CDB7DEB74B011A0179010E94CB
S11305F0D3019E838D838FEF9FE20197F1F700C0B3
S11306000000F701808191812D813E8128173907EF
S113061014F431832083F801808191812D813E81FE
S11306208217930714F431832083B401882777FD5C
S11306308095982F0E94D9095B016C01F8016081B3
S11306407181882777FD8095982F0E94D9092B0105
S11306503C01F70160817181882777FD8095982F8F
S11306600E94D90969837A838B839C832D813E817F
S1130670B901882777FD8095982F0E94D9098301B5
S1130680720129813A814B815C810E947602940136
S1130690992014F42F5F3F4F35952795A9014219EE
S11306A053094817590734F4220E331E8215930553
S11306B00CF4C90126960FB6F894DEBF0FBECDBF69
S11306C0DF91CF911F910F91FF90EF90DF90CF902A
S11306D0BF90AF909F908F907F906F905F904F905E
S11306E03F902F900895CF93C82F81E00E94B208C5
S11306F083E00E94A9088C2F0E94A9080E94AD08DB
S1130700C82F80E00E94B2088C2FCF910895CF9318
S1130710DF93D82FC62F81E00E94B20882E00E94A6
S1130720A9088D2F0E94A9088C2F0E94A90880E097
S11307300E94B208DF91CF910895CF93C82F81E032
S11307400E94B2088C2F81680E94A90880E00E9450
S1130750B208CF9108951F93CF93DF93182FD62F0C
S1130760C42F81E00E94B20885E00E94A908812F6D
S11307700E94A9088D2F0E94A9088C2F0E94A90805
S113078080E00E94B208DF91CF911F91089581E02B
S11307900E94B20880EC0E94A90880E00E94B2087E
S11307A008950E94A2080E94C70308958CE291E074
S11307B00E94670B089586E391E00E94670B83E42F
S11307C091E0909327028093260208958CE491E0AF
S11307D00E94670B089582E591E00E94670B0895DB
S11307E0CF93DF93CDB7DEB7C458D1090FB6F894D1
S11307F0DEBF0FBECDBF8EE591E00E94670B0E9465
S1130800010860E070E080E090E00E94B80787E6AD
S113081091E00E946B0780E1ECE1F1E0DE011196CA
S113082001900D928A95E1F78E010D5F1F4F9E0195
S11308302F5F3F4F45E050E064E670E081E090E0D8
S11308400E94DD020C5F1F4F9E012B5F3F4F45E06E
S113085050E064E670E082E090E00E94DD020C5F0C
S11308601F4F9E01275F3F4F45E050E064E670E074
S113087083E090E00E94DD0286B35E018BE7A80E60
S1130880B11C0F2EF8E5CF2EFAE3DF2EF0E2EF2EA7
S1130890F12CF02D8E010D5F1F4F9E012F5F3F4FF6
S11308A045E050E064E670E081E090E00E94DD0203
S11308B0882E0C5F1F4F9E012B5F3F4F45E050E099
S11308C064E670E082E090E00E94DD02982E0C5F06
S11308D01F4F9E01275F3F4F45E050E064E670E004
S11308E083E090E00E94DD02182F06B3CE014B9600
S11308F00E943D027D8C7A944AE0BE016A5B7F4F80
S1130900882D90E00E94F70A4AE0BE016B5D7F4F9C
S1130910892D90E00E94F70A4AE0BE0169597F4F91
S1130920872D90E00E94F70AF501C082D182E2820D
S1130930F382BE016A5B7F4FC5010E94EC0AD501B8
S11309400D900020E9F7119795E0E5E7F1E00190BB
S11309500D929A95E1F7BE016B5D7F4FC5010E9430
S1130960EC0A98E0EAE7F1E0DE01AF58BF4F0190EE
S11309700D929A95E1F7BE0169597F4FCE018F58C8
S11309809F4F0E94EC0A63E070E082E090E00E94D6
S1130990B807CE018F589F4F0E946B0783E0898B65
S11309A084E08A8B8B8A9C8A01700D8B1E8BCE010E
S11309B041960E9400028FEF9FE20197F1F700C079
S11309C0000068CFEF92FF920F931F93CF93DF93B2
S11309D07C0164E070E080E090E00E94B807D701F9
S11309E08D919C910E946B07F70126893789121615
S11309F01306D4F487010C5F1F4FC0E0D0E064E01D
S1130A0070E0CE0102960E94B807D801ED91FD91E5
S1130A108D01808191810E946B072196F7012689BF
S1130A203789C217D3075CF3D70112968D919C9135
S1130A301397892B51F064E070E0C90102960E947B
S1130A40B8078BE991E00E946B07DF91CF911F916A
S1130A500F91FF90EF9008958F929F92AF92BF9263
S1130A60CF92DF92EF92FF920F931F93CF93DF9376
S1130A700E94010861E070E082E090E00E94B80703
S1130A8082EA91E00E946B07E6E8F2E085EA91E0F1
S1130A90918380830F2EFEE3EF2EF2E0FF2EF02DE4
S1130AA08EE591E0D7018D939C930F2EFEE08F2E5F
S1130AB0F2E09F2EF02D8FEA91E0E4019983888380
S1130AC00EEC12E088EB91E0D8018D939C930F2EED
S1130AD0F6EBAF2EF2E0BF2EF02D82EC91E0E501B3
S1130AE099838883AEE9B2E088EC91E011969C93F7
S1130AF08E9346E252E08DEC91E0EA01998388837B
S1130B002EE632E083ED91E0E90199838883F09346
S1130B104102E09340026CE972E0EB018881998123
S1130B206C01CC0CDD1CE601C657DD4FF982E8826E
S1130B300F2EF0EFEF2EF3E0FF2EF02DF092530284
S1130B40E0925202F093D102E093D002E601C4573E
S1130B50DD4F1983088306ED13E01093E30200933D
S1130B60E202F0931102E09310028C010C5F1F4F1C
S1130B707801EE0CFF1CE701CA57DD4F9982888289
S1130B801092230210922202F093A102E093A00299
S1130B90F601E057FD4FB183A083FB01118300836D
S1130BA01092B3021092B20290922902809228020B
S1130BB0E4E2F2E080819181EC01CC0FDD1FCE5E96
S1130BC0DD4F598348830196918380838BED93E0B5
S1130BD090933B0280933A02B0937102A093700207
S1130BE0E4EBF2E040815181CA010296EC01CC0FA2
S1130BF0DD1FC256DD4F398328832BEE33E030935B
S1130C00830220938202B093B902A093B802DA015E
S1130C10AA0FBB1FAC55BD4FAD92BC92918380838C
S1130C2086EE93E09093CB028093CA0286E892E02A
S1130C300E94E20488E1E6E8F2E0A6E5B2E0019071
S1130C400D928A95E1F7DF91CF911F910F91FF905B
S1130C50EF90DF90CF90BF90AF909F908F900895CA
S1130C600F931F93CF93DF938C01EB010E94E40752
S1130C7061E070E0C8018C0F9D1F0E94B80782EAF2
S1130C8091E00E946B07DF91CF911F910F9108951E
S1130C90EF92FF920F931F93CF93DF93EC0189019F
S1130CA0EE88FF88452B09F446C02FEF8FEF92E0C2
S1130CB0215080409040E1F700C000C0D801ED9180
S1130CC0FC913296EE0FFF1FEC0FFD1F0190F08197
S1130CD0E02D84819581892BB1F088E1DE010190BA
S1130CE00D928A95E1F7F801118210820E940108A1
S1130CF0CE010E94E20462E070E0D8018D919C91E3
S1130D000E94300618C00488F589E02D0995892BC6
S1130D1091F4B1E0EB1AF1080E151F0561F48A8114
S1130D209B81892B41F00E940108EA81FB81828129
S1130D3093810E94E204DF91CF911F910F91FF9064
S1130D40EF9008950E94C7080E94B8080E940B08FB
S1130D500E942C050E94FA01CCE6D2E00F2EF8E5A1
S1130D60EF2EF2E0FF2EF02D86B381708093070200
S1130D7086B386958170809306020AE011E028E02C
S1130D8031E045E050E064E670E081E090E00E94EC
S1130D90DD0290930D0280930C020EE011E02CE032
S1130DA031E045E050E064E670E082E090E00E94CB
S1130DB0DD0290930B0280930A0202E111E020E12C
S1130DC031E045E050E064E670E083E090E00E94AA
S1130DD0DD0290930902809308028881998190939F
S1130DE00302809302024091070250E060910A02DC
S1130DF070910B0224E032E086E592E00E944806FE
S1130E0080910A0290910B028233910509F4ACCFD0
S1130E108833910574F02091040230910502121672
S1130E2013063CF421503109309305022093040247
S1130E3023C08D970CF5209102023091030280911A
S1130E40040290910502A9014150510984179507A4
S1130E5034F4019690930502809304020DC0821726
S1130E60930754F4F70120813181232B29F0019653
S1130E7090930502809304020E94E4078091040287
S1130E809091050261E070E002960E94B80782EA40
S1130E9091E00E946B07FFEF2FE781E0F1502040C3
S1130EA08040E1F700C000C05FCF28E0829FC0010E
S1130EB01124FC01E059F04020E030E0A091180139
S1130EC0B091190184918C932F5F3F4F3196283054
S1130ED03105A1F70895CF93DF93EC01888188232E
S1130EE031F021960E94550789918111FBCFDF9142
S1130EF0CF910895E0911A01F0911B0181E2808362
S1130F00E0911A01F0911B011082E0911A01F09115
S1130F101B018FE78083E0911A01F0911B0182E2AB
S1130F208083E0911A01F0911B011082E0911A0173
S1130F30F0911B0187E080830895CF93C82F0E940E
S1130F407A07C83098F4C093E702E0911A01F0914F
S1130F501B011082E0911A01F0911B0180E1808352
S1130F60E0911A01F0911B01C06BC083CF910895E9
S1130F70CF93C62F90E00E949D07C031A8F48C2F18
S1130F80880F880F880F8093E602E0911A01F09190
S1130F901B016C2F70E0769567956083E0911A01D0
S1130FA0F0911B01605F6083CF9108950E949D07BB
S1130FB080E0E0911801F091190110828F5F803870
S1130FC0C1F70E947A0708951F93CF93DF93C0E07F
S1130FD010E1D0E060E08C2F0E94B807212F3D2F54
S1130FE0E0911801F0911901108221503109211565
S1130FF03105B1F7CF5FC83069F7DF91CF911F9109
S11310000895CF93C0E08C2F0E94D607CF5FC830DD
S1131010D1F7CF910895E0911A01F0911B018EEA66
S11310208083E0911A01F0911B0181EA8083E091B1
S11310301A01F0911B018AED8083E0911A01F0916D
S11310401B0182E18083E0911A01F0911B0188EC7D
S11310508083E0911A01F0911B0188EA8083E0917A
S11310601A01F0911B018FE38083E0911A01F09142
S11310701B0185ED8083E0911A01F0911B0180E84A
S11310808083E0911A01F0911B0181E88083E09153
S11310901A01F0911B0180E58083E0911A01F0911F
S11310A01B0189ED8083E0911A01F0911B0181E21B
S11310B08083E0911A01F0911B0180E28083E0912A
S11310C01A01F0911B0182E08083E0911A01F091F2
S11310D01B018BED8083E0911A01F0911B0180E3E9
S11310E08083E0911A01F0911B018DEA8083E091E5
S11310F01A01F0911B011082E0911A01F0911B0179
S113110084EA8083E0911A01F0911B0186EA8083CE
S1131110E0911A01F0911B018FEA8083E0911A019A
S1131120F0911B0180EB8083E0911A01F0911B0187
S11311301082E0911A01F0911B0180E180830E94EA
S11311407A07089587B3806B87BB8DB181658DB9AC
S113115008958FB9779BFECF089580E00E94A90877
S11311608FB10895882311F0C4980895C49A0895FE
S113117085B7806885BF80B7806280BF08955D9B16
S1131180FECF8CB908955F9BFECF8CB1089510BC3F
S11311908FE189B988E18AB98EE880BD63EC78E093
S11311A08FEB98E00E941C0B08955058BB27AA2788
S11311B00ED075C166D130F06BD120F031F49F3F71
S11311C011F41EF45BC10EF4E095E7FB51C1E92F65
S11311D077D180F3BA17620773078407950718F06D
S11311E071F49EF58FC10EF4E0950B2EBA2FA02D4D
S11311F00B01B90190010C01CA01A0011124FF27C0
S1131200591B99F0593F50F4503E68F11A16F040BA
S1131210A22F232F342F4427585FF3CF46953795B9
S11312202795A795F0405395C9F77EF41F16BA0B7E
S1131230620B730B840BBAF09150A1F0FF0FBB1F2C
S1131240661F771F881FC2F70EC0BA0F621F731F75
S1131250841F48F4879577956795B795F7959E3FD2
S113126008F0B3CF9395880F08F09927EE0F979560
S113127087950895D9D008F481E008950CD00FC162
S113128007D140F0FED030F021F45F3F19F0F0C0F8
S1131290511139C1F3C014D198F39923C9F35523DB
S11312A0B1F3951B550BBB27AA2762177307840755
S11312B038F09F5F5F4F220F331F441FAA1FA9F30B
S11312C033D00E2E3AF0E0E830D091505040E695FD
S11312D0001CCAF729D0FE2F27D0660F771F881F5E
S11312E0BB1F261737074807AB07B0E809F0BB0B4D
S11312F0802DBF01FF2793585F4F2AF09E3F510571
S113130068F0B6C000C15F3FECF3983EDCF386950D
S113131077956795B795F7959F5FC9F7880F911DE6
S11313209695879597F90895E1E0660F771F881FD2
S1131330BB1F621773078407BA0720F0621B730B85
S1131340840BBA0BEE1F88F7E095089504D06894D7
S1131350B111D9C00895BCD088F09F5790F0B92F2F
S11313609927B751A0F0D1F0660F771F881F991FF6
S11313701AF0BA95C9F712C0B13081F0C3D0B1E008
S11313800895C0C0672F782F8827B85F39F0B93F18
S1131390CCF3869577956795B395D9F73EF49095F8
S11313A08095709561957F4F8F4F9F4F0895E89476
S11313B009C097FB3EF490958095709561957F4F99
S11313C08F4F9F4F9923A9F0F92F96E9BB27939547
S11313D0F695879577956795B795F111F8CFFAF457
S11313E0BB0F11F460FF1BC06F5F7F4F8F4F9F4F88
S11313F016C0882311F096E911C0772321F09EE8E6
S1131400872F762F05C0662371F096E8862F70E04B
S113141060E02AF09A95660F771F881FDAF7880F25
S11314209695879597F90895990F0008550FAA0B7B
S1131430E0E8FEEF16161706E807F907C0F01216E3
S11314401306E407F50798F0621B730B840B950BE6
S113145039F40A2661F0232B242B252B21F408953B
S11314600A2609F4A140A6958FEF811D811D0895D8
S113147097F99F6780E870E060E008959FEF80EC43
S1131480089500240A9416161706180609060895E6
S113149000240A9412161306140605060895092E4C
S11314A00394000C11F4882352F0BB0F40F4BF2BBB
S11314B011F460FF04C06F5F7F4F8F4F9F4F0895FB
S11314C057FD9058440F551F59F05F3F71F04795F1
S11314D0880F97FB991F61F09F3F79F087950895D6
S11314E0121613061406551FF2CF4695F1DF08C0F5
S11314F0161617061806991FF1CF86957105610512
S113150008940895E894BB2766277727CB0197F9B9
S113151008950BD0C4CFB5DF28F0BADF18F09523B7
S113152009F0A6CFABCF1124EECFCADFA0F3959F6D
S1131530D1F3950F50E0551F629FF001729FBB27B6
S1131540F00DB11D639FAA27F00DB11DAA1F649F62
S11315506627B00DA11D661F829F2227B00DA11D15
S1131560621F739FB00DA11D621F839FA00D611D9B
S1131570221F749F3327A00D611D231F849F600DBC
S1131580211D822F762F6A2F11249F5750408AF0F5
S1131590E1F088234AF0EE0FFF1FBB1F661F771F81
S11315A0881F91505040A9F79E3F510570F060CFBD
S11315B0AACF5F3FECF3983EDCF386957795679569
S11315C0B795F795E7959F5FC1F7FE2B880F911D9F
S11315D09695879597F90895FB01DC010D900020FD
S11315E0E9F7119701900D920020E1F70895BB27C8
S11315F04A3031F4992322F4BDE2909581959F4FAE
S11316000C94030BBB27FB015527AA27880F991FAE
S1131610AA1FA41710F0A41B83955051B9F7A05D1D
S1131620AA3308F0A95DA193009779F7B111B1939A
S11316301192CB010C94DE0C0F931F93CF93DF9385
S1131640EC018B01009731F46115710519F480E008
S113165090E038C06EE070E081E090E00E94940B6E
S1131660FC010097A1F380E883830115110571F053
S11316701387028781E883838091E8029091E902CD
S1131680892B21F4F093E902E093E8022097C9F052
S1131690D187C0878381826083838091EA0290919D
S11316A0EB02892B71F4F093EB02E093EA02809150
S11316B0EC029091ED02892B21F4F093ED02E0937A
S11316C0EC02CF01DF91CF911F910F9108950F93F9
S11316D01F93CF93DF93E091EA02F091EB02238111
S11316E021FF1BC0EC0100E010E089916091EA0247
S11316F07091EB02DB011896ED91FC911997882308
S113170031F00995892B89F30FEF1FEFEECF8AE0B3
S11317100995892B11F4C80102C08FEF9FEFDF9167
S1131720CF911F910F9108950F931F93CF93DF9340
S1131730869F8001879F100D969F100D1124C8016C
S11317400E94B00BEC01009729F0A80160E070E062
S11317500E94D70CCE01DF91CF911F910F91089574
S1131760CF93DF938230910510F482E090E0E09112
S1131770F002F091F10220E030E0A0E0B0E0309718
S113178039F14081518148175907B8F04817590772
S113179071F482819381109729F013969C938E9310
S11317A012972CC09093F1028093F00227C0211568
S11317B0310531F04217530718F0A901DB0101C0CC
S11317C0EF019A01BD01DF010280F381E02DD7CF43
S11317D021153105F9F0281B390B2430310580F42B
S11317E08A819B816115710521F0FB0193838283BA
S11317F004C09093F1028093F002FE01329644C03B
S1131800FE01E20FF31F8193919322503109398332
S113181028833AC02091EE023091EF02232B41F449
S113182020910201309103013093EF022093EE02E4
S113183020910001309101012115310541F42DB7AA
S11318403EB74091040150910501241B350BE091F2
S1131850EE02F091EF02E217F307A0F42E1B3F0B08
S11318602817390778F0AC014E5F5F4F241735070E
S113187048F04E0F5F1F5093EF024093EE028193A6
S1131880919302C0E0E0F0E0CF01DF91CF910895A1
S1131890CF93DF93009709F487C0FC01329713823A
S11318A01282C091F002D091F102209781F420813C
S11318B03181280F391F8091EE029091EF02821737
S11318C0930779F5F093EF02E093EE026DC0DE0129
S11318D020E030E0AE17BF0750F412964D915C91B2
S11318E013979D014115510509F1DA01F3CFB38333
S11318F0A28340815181840F951F8A179B0771F43D
S11319008D919C911197840F951F029691838083EA
S113191012968D919C91139793838283211531059F
S113192029F4F093F102E093F0023EC0D90113963A
S1131930FC93EE9312974D915D91A40FB51FEA1796
S1131940FB0779F480819181840F951F0296D90158
S113195011969C938E938281938113969C938E937C
S11319601297E0E0F0E08A819B81009719F0FE0174
S1131970EC01F9CFCE01029628813981820F931FA1
S11319802091EE023091EF022817390769F430975D
S113199029F41092F1021092F00202C01382128212
S11319A0D093EF02C093EE02DF91CF910895DC0152
S11319B001C06D9341505040E0F70895DC01FC01F3
S11319C0672F71917723E1F7329704C07C916D936F
S11319D070836291AE17BF07C8F30895F894FFCFE0
S11319E00000F202200000140000FF000000FF00CD
S11319F00000FF000000FF00001200100000FF00C4
S1131A000000FF000000FF000000FF006869676835
S1131A1073636F726500536F756E6420746F6767CC
S1131A206C6500536F756E64206F6E0061626F7534
S1131A30740063616C6962726174696F6E004E65F3
S1131A40772067616D650047616D6520737461720D
S1131A50746564210020593A200053636F72653A1B
S1131A6020000A4368696C6472656E206F662025E5
S1131A70730A0025643A2025730A0052657475724E
S1131A806E00203E004D61696E206D656E750053D9
S1131A90657474696E6773004869676873636F720D
S1131AA0650041626F7574004D69736300536F750F
S1131AB06E640043616C6962726174696F6E000ADE
S1131AC0506172656E74206F66202573202D3E2050
S1131AD025730A004E6F20706172656E74732E2E2A
S1051AE02E00D2
S9030000FC
