S00D00004E6F6465312E7372656360
S11300000C94B4010C94D1010C94D1010C94D10141
S11300100C94D1010C94D1010C94D1010C94D10114
S11300200C94D1010C94D1010C94D1010C94D10104
S11300300C94D1010C94D1010C94D1010C94D101F4
S11300400C94D1010C94D1010C94D1010C94D101E4
S11300500C94D1010C94D1010C94D1010C94D101D4
S11300600C94D1010C94D1010C94D1010C94D101C4
S1130070000000000000000000065F5F06000000B2
S11300800007070007070000147F7F147F7F140018
S1130090242E6B6B3A120000466630180C66620020
S11300A0307A4F5D377A48000407030000000000EF
S11300B0001C3E63410000000041633E1C00000040
S11300C0082A3E1C1C3E2A0808083E3E0808000078
S11300D000A0E0600000000008080808080800000C
S11300E000006060000000006030180C060301008E
S11300F03E7F594D7F3E000042427F7F40400000DA
S1130100627359496F660000226349497F360000D3
S1130110181C16137F7F1000276745457D390000A2
S11301203C7E4B4979300000036371190F070000CE
S1130130367F49497F360000064F49693F1E00005B
S113014000006C6C0000000000A0EC6C00000000DB
S1130150081C366341000000141414141414000025
S1130160004163361C080000020351590F060000C9
S11301703E7F415D5D1F1E007C7E13137E7C00006C
S1130180417F7F49497F36001C3E63414163220021
S1130190417F7F41637F1C00417F7F495D41630054
S11301A0417F7F491D0103001C3E6341517372006E
S11301B07F7F08087F7F000000417F7F41000000AF
S11301C0307040417F3F0100417F7F081C7763000E
S11301D0417F7F41406070007F7F060C067F7F0077
S11301E07F7F060C187F7F001C3E6341633E1C002A
S11301F0417F7F49090F06001E3F21717F5E000089
S1130200417F7F19396F460026674D597B320000C4
S113021003417F7F410300007F7F40407F7F0000D8
S11302201F3F60603F1F00007F7F3018307F7F00DA
S113023063771C081C776300074F78784F0700002A
S11302406773594D47637100007F7F41410000008F
S11302500103060C183060000041417F7F0000005C
S1130260080C0603060C0800808080808080808053
S11302700000030704000000207454543C7840003C
S1130280413F7F44447C3800387C44446C2800005F
S1130290307848493F7F4000387C54545C18000053
S11302A0487E7F490302000098BCA4A4F87C0400A3
S11302B0417F7F08047C780000447D7D400000007D
S11302C040C484FD7D000000417F7F10386C4400F1
S11302D000417F7F400000007C7C0C180C7C78007F
S11302E07C7C04047C780000387C44447C38000026
S11302F084FCF8A4243C1800183C24A4F8FC8400D2
S1130300447C78441C180000485C54547424000055
S113031000043E7F442400003C7C40403C7C400080
S11303201C3C60603C1C00003C7C6030607C3C00F9
S1130330446C3810386C44009CBCA0A0FC7C0000C9
S11303404C64745C4C64000008083E774141000032
S113035000000077770000004141773E0808000064
S1130360020301030203010011241FBECFEFD4E0F6
S1130370DEBFCDBF12E0A0E0B1E0E6E0FEE102C0E6
S113038005900D92AA36B107D9F723E0AAE6B2E0A8
S113039001C01D92AD36B207E1F70E9417090C9413
S11303A0010F0C9400008330910539F084309105DD
S11303B031F0029731F084E005C086E003C087E0A5
S11303C001C085E0E0910601F091070180838FEF81
S11303D09FE20197F1F700C00000E0910601F0915F
S11303E00701808190E00895482F60EE8FE00E941D
S11303F0DA030895EF92FF920F931F93CF93DF9345
S11304007C01FC0160816295660F607E82E30E943C
S1130410B603F701608166956695669581E30E944F
S1130420B603F701618185E30E94B603F701818178
S1130430882399F087010E5F1F4FC0E0D0E0F801D8
S113044061918F018C2F8A5C0E94B6032196F7017B
S1130450218130E0C217D30794F381E80E94CC03D2
S1130460DF91CF911F910F91FF90EF900895CF935B
S1130470DF93CDB7DEB72A970FB6F894DEBF0FBE71
S1130480CDBF0E94000480E00E94F40183E08983D0
S113049087E08A8382E38B838C831D828E8385E04D
S11304A08F83188619868FEF9FE20197F1F700C0BA
S11304B00000CE0101960E94FA018FEF9FE201979E
S11304C0F1F700C000002A960FB6F894DEBF0FBE05
S11304D0CDBFDF91CF9108951F93CF93DF93EC01AC
S11304E08CE20E94A2038FEF9FE20197F1F700C014
S11304F0000081E60E94A203182F82E60E94A20354
S1130500110F110F110F829586958770182B188380
S113051085E60E94A2038F708983882369F010E026
S113052086E6810F0E94A203FE01E10FF11D828382
S11305301F5F89811817A0F340E061E08CE20E94FC
S1130540DA03DF91CF911F9108954F925F926F92DA
S11305507F92AF92BF92CF92DF92EF92FF920F936E
S11305601F93CF93DF9300D000D0CDB7DEB769835C
S11305707A838B839C83C801B7010E94150B2B01DE
S11305803C0120E030E0A9010E947A0B81110CC0EB
S113059020E030E040E05FE3C601B5010E94C90CF1
S11305A00E94E60BCB0125C0A3019201C601B5014F
S11305B00E947E0B29813A814B815C810E94C90C87
S11305C00E94E60B2B013C01882777FD8095982F2C
S11305D00E94190C9B01AC01C601B5010E947A0B63
S11305E0882334F4C601B5010E94E60BCB0101C097
S11305F0C2010F900F900F900F90DF91CF911F9138
S11306000F91FF90EF90DF90CF90BF90AF907F90CD
S11306106F905F904F9008952F923F924F925F9208
S11306206F927F928F929F92AF92BF92CF92DF92FE
S1130630EF92FF920F931F93CF93DF9300D000D0DC
S113064000D0CDB7DEB74B011A0179010E94D30166
S11306509E838D838FEF9FE20197F1F700C0000026
S1130660F701808191812D813E812817390714F487
S113067031832083F801808191812D813E8182170D
S1130680930714F431832083B401882777FD809580
S1130690982F0E94190C5B016C01F8016081718133
S11306A0882777FD8095982F0E94190C2B013C0117
S11306B0F70160817181882777FD8095982F0E94CA
S11306C0190C69837A838B839C832D813E81B901C4
S11306D0882777FD8095982F0E94190C8301720159
S11306E029813A814B815C810E94A5029401992061
S11306F014F42F5F3F4F35952795A90142195309EB
S11307004817590734F4220E331E821593050CF44E
S1130710C90126960FB6F894DEBF0FBECDBFDF9198
S1130720CF911F910F91FF90EF90DF90CF90BF90EA
S1130730AF909F908F907F906F905F904F903F907D
S11307402F900895CF93C82F81E00E94F20A83E08E
S11307500E94E90A8C2F0E94E90A0E94ED0AC82F20
S113076080E00E94F20A8C2FCF910895CF93DF93FB
S1130770D82FC62F81E00E94F20A82E00E94E90A83
S11307808D2F0E94E90A8C2F0E94E90A80E00E94C2
S1130790F20ADF91CF910895CF93C82F81E00E9490
S11307A0F20A8C2F81680E94E90A80E00E94F20A12
S11307B0CF9108951F93CF93DF93182FD62FC42F73
S11307C081E00E94F20A85E00E94E90A812F0E94DA
S11307D0E90A8D2F0E94E90A8C2F0E94E90A80E021
S11307E00E94F20ADF91CF911F91089581E00E9447
S11307F0F20A80EC0E94E90A80E00E94F20A08955D
S11308000E94E20A0E94F60308950895EF92FF926F
S11308100F931F93CF93DF937C0164E070E080E03B
S113082090E00E94FA09D7018D919C910E94AD0934
S1130830F7012689378912161306D4F487010C5F51
S11308401F4FC0E0D0E064E070E0CE0102960E9449
S1130850FA09D801ED91FD918D01808191810E9469
S1130860AD092196F70126893789C217D3075CF3AE
S1130870D70112968D919C911397892B51F064E0C6
S113088070E0C90102960E94FA0986E491E00E9490
S1130890AD09DF91CF911F910F91FF90EF900895D3
S11308A08F929F92AF92BF92CF92DF92EF92FF927C
S11308B00F931F93CF93DF930E94350A61E070E09A
S11308C082E090E00E94FA098DE491E00E94AD0973
S11308D0CFEFD2E080E591E0998388830F2EF7EB88
S11308E0EF2EF2E0FF2EF02D8AE591E0F7019183DF
S11308F08083A7E8B2E083E691E011969C938E93FF
S11309008CE691E090934803809347030F2EFFE217
S1130910AF2EF3E0BF2EF02D88E092E0F501918335
S113092080830F2EF7E18F2EF3E09F2EF02D86E7C4
S113093091E0F401918380836FE672E089EF91E0A6
S1130940FB01918380834FE952E08BE791E0FA0148
S11309509183808327EE32E080E891E0F90191836E
S11309608083D093BA02C093B90205E113E0F80181
S1130970808191816C01CC0CDD1CF601ED5FFC4F94
S1130980F182E0820F2EF1EEEF2EF5E0FF2EF02D36
S1130990F092CC02E092CB02D0938A02C0938902F7
S11309A07C01F3E0EF0EF11C6701CC0CDD1CF601B9
S11309B0E150FD4FB183A08310929C0210929B02E0
S11309C0D0931A03C0931903EC01CC0FDD1FC95F48
S11309D0DC4F99828882F801F182E08210922C0324
S11309E010922B03B0937202A0937102CDE9D2E06E
S11309F008811981C80102967C01EE0CFF1CF701E5
S1130A00E957FD4F7183608362E277E0709384025B
S1130A1060938302B093A202A093A102D801AA0F0B
S1130A20BB1FA357BD4F4D935C93998388838CE27E
S1130A3098E09093B4028093B3029092EA02809279
S1130A40E902ADE2B3E04D915C911197CA010296BF
S1130A50EC01CC0FDD1FC95EDC4F3983288325E010
S1130A6034E03093FC022093FB0290923203809294
S1130A703103FA01EE0FFF1FE35EFC4FB182A08247
S1130A808D939C938EED97E090934403809343035E
S1130A908FEF92E00E94060488E1EFEFF2E0AFEC02
S1130AA0B2E001900D928A95E1F7DF91CF911F9109
S1130AB00F91FF90EF90DF90CF90BF90AF909F90F9
S1130AC08F9008950F931F93CF93DF938C01EB01C5
S1130AD00E94180A61E070E0C8018C0F9D1F0E94FB
S1130AE0FA098DE491E00E94AD09DF91CF911F9145
S1130AF00F9108950F931F93CF93DF93EC01890116
S1130B002E893F89F80180819181909360038093BD
S1130B105F03452B09F450C0FFEF4FEF82E0F15023
S1130B2040408040E1F700C000C0F801808191811D
S1130B3082179307D1F418161906BCF4EA81FB81D5
S1130B4088E1DE0101900D928A95E1F70E94350A51
S1130B50CE010E940604F8011182108262E070E066
S1130B6080E090E00E94620527C00296FC01EE0F2F
S1130B70FF1FEC0FFD1F0190F081E02D8481958112
S1130B80892BB1F088E1DE0101900D928A95E1F79D
S1130B90F801118210820E94350ACE010E940604D7
S1130BA062E070E0F801808191810E94620504C0D6
S1130BB00488F589E02D0995DF91CF911F910F915C
S1130BC008956F927F928F929F92AF92BF92CF922D
S1130BD0DF92EF92FF920F931F93CF93DF93CDB7E2
S1130BE0DEB7C458D1090FB6F894DEBF0FBECDBF2F
S1130BF00E94350A62E070E081E090E00E94FA0908
S1130C008FEA91E00E94AD0980E1EDE1F1E0DE01BF
S1130C10119601900D928A95E1F70F2EF9E09F2E1F
S1130C20F02D5E012BE7A20EB11C0F2EF8E5CF2E9E
S1130C30FAE3DF2EF0E2EF2EF12CF02D8E010D5FA2
S1130C401F4F9E012F5F3F4F45E050E064E670E088
S1130C5081E090E00E940C03782E0C5F1F4F9E01F0
S1130C602B5F3F4F45E050E064E670E082E090E0A7
S1130C700E940C03882E0C5F1F4F9E01275F3F4F7D
S1130C8045E050E064E670E083E090E00E940C03ED
S1130C90082F66B216B34AE0BE016A5B7F4F872D08
S1130CA090E00E94370D4AE0BE016B5D7F4F882DB6
S1130CB090E00E94370D4AE0BE0169597F4F892DAB
S1130CC090E00E94370DF501C082D182E282F38266
S1130CD0BE016A5B7F4FC5010E942C0DD5010D90AA
S1130CE00020E9F7119785E0EDEBF1E001900D921A
S1130CF08A95E1F7BE016B5D7F4FC5010E942C0D03
S1130D0088E0E2ECF1E0DE01AF58BF4F01900D92B4
S1130D108A95E1F7BE0169597F4FCE018F589F4FE5
S1130D200E942C0D63E070E083E090E00E94FA09D9
S1130D30CE018F589F4F0E94AD0983E0898B87E0D5
S1130D408A8B7B8A8C8A862D81708D8B0E8B809109
S1130D5008018F8B80916A02888F81E0898FCE0190
S1130D6041960E94FA018FEF9FE20197F1F700C0CC
S1130D700000CE014B960E946C029D8C9A9411FF48
S1130D8006C0198ECE0141960E94FA012EC0911020
S1130D9055CF0E94350A60E070E080E090E00E9448
S1130DA0FA098AEC91E00E94AD0960E070E082E00B
S1130DB090E00E94FA0985ED91E00E94AD0960E09F
S1130DC070E083E090E00E94FA0986EE91E00E94D0
S1130DD0AD09198ECE0141960E94FA0186B396B3ED
S1130DE0927080FD02C09923C9F39FEFEFEFF2E008
S1130DF09150E040F040E1F700C000C00E94350A85
S1130E008FEC92E00E94060462E070E080915F0340
S1130E10909160030E946205CC57DF4F0FB6F8949F
S1130E20DEBF0FBECDBFDF91CF911F910F91FF9019
S1130E30EF90DF90CF90BF90AF909F908F907F9076
S1130E406F900895FF920F931F93CF93DF93CDB7C5
S1130E50DEB7A4970FB6F894DEBF0FBECDBF80E116
S1130E60EDE1F1E0DE01119601900D928A95E1F732
S1130E700E94350A60E070E080E090E00E94FA0988
S1130E8082EF91E00E94AD090F2EF7E0FF2EF02DC6
S1130E9062E070E082E090E00E94FA098E01095F4E
S1130EA01F4F9E012B5F3F4F45E050E064E670E02A
S1130EB082E090E00E940C0316B31170833388F033
S1130EC0809108018F5F809308012FEF8FE791E0F5
S1130ED0215080409040E1F700C000C00E94350AD4
S1130EE012C0823380F480910801815080930801FC
S1130EF02FEF8FE791E0215080409040E1F700C050
S1130F0000C00E94350A80910801882314F41092CD
S1130F100801809108014AE0BE016F5E7F4F992766
S1130F2087FD90950E94370DEDEFF1E0DE015B96B1
S1130F308F2D01900D928A95E1F7BE016F5E7F4F70
S1130F40CE014B960E942C0D60E070E080E090E0B2
S1130F500E94FA0982EF91E00E94AD0962E070E01C
S1130F6082E090E00E94FA09CE014B960E94AD09FE
S1130F70112309F48DCF2FEF8FEF92E021508040A1
S1130F809040E1F700C000C00E94350A8FEC92E067
S1130F900E94060462E070E080915F039091600318
S1130FA00E946205A4960FB6F894DEBF0FBECDBFB3
S1130FB0DF91CF911F910F91FF9008950E94350A00
S1130FC060E070E080E090E00E94FA0984E092E042
S1130FD00E94AD0960E070E082E090E00E94FA09AE
S1130FE08EE092E00E94AD0960E070E084E090E061
S1130FF00E94FA098DE192E00E94AD0960E070E080
S113100086E090E00E94FA0988E292E00E94AD092D
S113101060E070E087E090E00E94FA0987E392E0E4
S11310200E94AD09B09BFECF2FEF8FEF92E02150CD
S113103080409040E1F700C000C00E94350A8FEC68
S113104092E00E94060462E070E080915F03909158
S113105060030E9462050895EF92FF920F931F931D
S1131060CF93DF93CDB7DEB7A4970FB6F894DEBF66
S11310700FBECDBF80E1EDE1F1E0DE0111960190FC
S11310800D928A95E1F70E94350A64E070E080E0F1
S113109090E00E94FA0987E492E00E94AD0964E0BE
S11310A070E082E090E00E94FA0983E592E00E94F9
S11310B0AD0964E070E083E090E00E94FA098CE5F9
S11310C092E00E94AD09EE24E3940F2EF7E0FF2E88
S11310D0F02D62E070E082E090E00E94FA098E0157
S11310E0095F1F4F9E012B5F3F4F45E050E064E6D0
S11310F070E082E090E00E940C0396B3192F117007
S1131100823388F480916A028F5F80936A022FEFA2
S11311108FE791E0215080409040E1F700C000C08B
S11311200E94180A12C0833380F080916A028150B1
S113113080936A022FEF8FE791E021508040904026
S1131140E1F700C000C00E94180A80916A02882357
S11311501CF410926A020CC082301CF0E0926A0205
S113116012C080916A02882319F08130B1F40BC057
S113117061E070E082E090E00E94FA098DE491E081
S11311800E94AD090AC061E070E083E090E00E9433
S1131190FA098DE491E00E94AD0980916A024AE067
S11311A0BE016F5E7F4F992787FD90950E94370D92
S11311B0E3E6F2E0DE015B968F2D01900D928A95B5
S11311C0E1F7BE016F5E7F4FCE014B960E942C0D5E
S11311D064E070E080E090E00E94FA0987E492E025
S11311E00E94AD09112309F474CF2FEF8FEF92E021
S11311F0215080409040E1F700C000C00E94350AB1
S11312008FEC92E00E94060462E070E080E090E0DF
S11312100E946205A4960FB6F894DEBF0FBECDBF40
S1131220DF91CF911F910F91FF90EF9008950E944D
S1131230070B0E94F80A0E944B0A0E9450040E9465
S11312403702C5EED2E00F2EF1EDEF2EF2E0FF2EC5
S1131250F02D0FE011E02DE031E045E050E064E6D0
S113126070E082E090E00E940C03182F46B32881BE
S1131270398130936C0220936B024170682F772779
S113128067FD70952DE632E050E08FEC92E00E940D
S11312907A051233F1F2183374F020916D02309113
S11312A06E02121613063CF42150310930936E027B
S11312B020936D0223C01D320CF520916B023091F6
S11312C06C0280916D0290916E02A9014150510906
S11312D08417950734F4019690936E0280936D02FF
S11312E00DC08217930754F4F70120813181232B19
S11312F029F0019690936E0280936D020E94180A61
S113130080916D0290916E0261E070E002960E94FD
S1131310FA098DE491E00E94AD09FFEF2FE781E027
S1131320F15020408040E1F700C000C092CF28E097
S1131330829FC0011124FC01E059F04020E030E01C
S1131340A0911901B0911A0184918C932F5F3F4FA2
S1131350319628303105A1F70895CF93DF93EC013E
S11313608881882331F021960E94970989918111FF
S1131370FBCFDF91CF910895E0911B01F0911C0107
S113138081E28083E0911B01F0911C011082E091C5
S11313901B01F0911C018FE78083E0911B01F09108
S11313A01C0182E28083E0911B01F0911C011082F8
S11313B0E0911B01F0911C0187E080830895CF9395
S11313C0C82F0E94BC09C83098F4C0936203E0910E
S11313D01B01F0911C011082E0911B01F0911C0192
S11313E080E18083E0911B01F0911C01C06BC083FC
S11313F0CF910895CF93C62F90E00E94DF09C031AA
S1131400A8F48C2F880F880F880F80936103E091D4
S11314101B01F0911C016C2F70E076956795608339
S1131420E0911B01F0911C01605F6083CF910895EE
S11314301F93CF93DF93C0E010E1D0E060E08C2FE6
S11314400E94FA09212F3D2FE0911901F0911A0110
S113145010822150310921153105B1F7CF5FC83011
S113146069F7DF91CF911F91089520EB40E830E0B8
S1131470E0911B01F0911C012083842F932FE091B4
S11314801901F0911A01108201970097C1F72F5F9B
S1131490283B71F70895E0911B01F0911C018EEA3D
S11314A08083E0911B01F0911C0181EA8083E0912B
S11314B01B01F0911C018AED8083E0911B01F091E6
S11314C01C0182E18083E0911B01F0911C0188ECF6
S11314D08083E0911B01F0911C0188EA8083E091F4
S11314E01B01F0911C018FE38083E0911B01F091BB
S11314F01C0185ED8083E0911B01F0911C0180E8C3
S11315008083E0911B01F0911C0181E88083E091CC
S11315101B01F0911C0180E58083E0911B01F09197
S11315201C0189ED8083E0911B01F0911C0181E293
S11315308083E0911B01F0911C0180E28083E091A3
S11315401B01F0911C0182E08083E0911B01F0916A
S11315501C018BED8083E0911B01F0911C0180E361
S11315608083E0911B01F0911C018DEA8083E0915E
S11315701B01F0911C011082E0911B01F0911C01F0
S113158084EA8083E0911B01F0911C0186EA808348
S1131590E0911B01F0911C018FEA8083E0911B0113
S11315A0F0911C0180EB8083E0911B01F0911C0100
S11315B01082E0911B01F0911C0180E180830E9464
S11315C0350A089587B3806B87BB8DB181658DB96A
S11315D008958FB9779BFECF089580E00E94E90AB1
S11315E08FB10895882311F0C4980895C49A08957A
S11315F085B7806885BF80B7806280BF08955D9B92
S1131600FECF8CB908955F9BFECF8CB1089510BCBA
S11316108FE189B988E18AB98EE880BD63E07BE017
S11316208FEF9AE00E945C0D08955058BB27AA27BB
S11316300ED075C166D130F06BD120F031F49F3FEC
S113164011F41EF45BC10EF4E095E7FB51C1E92FE0
S113165077D180F3BA17620773078407950718F0E8
S113166071F49EF58FC10EF4E0950B2EBA2FA02DC8
S11316700B01B90190010C01CA01A0011124FF273B
S1131680591B99F0593F50F4503E68F11A16F04036
S1131690A22F232F342F4427585FF3CF4695379535
S11316A02795A795F0405395C9F77EF41F16BA0BFA
S11316B0620B730B840BBAF09150A1F0FF0FBB1FA8
S11316C0661F771F881FC2F70EC0BA0F621F731FF1
S11316D0841F48F4879577956795B795F7959E3F4E
S11316E008F0B3CF9395880F08F09927EE0F9795DC
S11316F087950895D9D008F481E008950CD00FC1DE
S113170007D140F0FED030F021F45F3F19F0F0C073
S1131710511139C1F3C014D198F39923C9F3552356
S1131720B1F3951B550BBB27AA27621773078407D0
S113173038F09F5F5F4F220F331F441FAA1FA9F386
S113174033D00E2E3AF0E0E830D091505040E69578
S1131750001CCAF729D0FE2F27D0660F771F881FD9
S1131760BB1F261737074807AB07B0E809F0BB0BC8
S1131770802DBF01FF2793585F4F2AF09E3F5105EC
S113178068F0B6C000C15F3FECF3983EDCF3869589
S113179077956795B795F7959F5FC9F7880F911D62
S11317A09695879597F90895E1E0660F771F881F4E
S11317B0BB1F621773078407BA0720F0621B730B01
S11317C0840BBA0BEE1F88F7E095089504D0689453
S11317D0B111D9C00895BCD088F09F5790F0B92FAB
S11317E09927B751A0F0D1F0660F771F881F991F72
S11317F01AF0BA95C9F712C0B13081F0C3D0B1E084
S11318000895C0C0672F782F8827B85F39F0B93F93
S1131810CCF3869577956795B395D9F73EF4909573
S11318208095709561957F4F8F4F9F4F0895E894F1
S113183009C097FB3EF490958095709561957F4F14
S11318408F4F9F4F9923A9F0F92F96E9BB279395C2
S1131850F695879577956795B795F111F8CFFAF4D2
S1131860BB0F11F460FF1BC06F5F7F4F8F4F9F4F03
S113187016C0882311F096E911C0772321F09EE861
S1131880872F762F05C0662371F096E8862F70E0C7
S113189060E02AF09A95660F771F881FDAF7880FA1
S11318A09695879597F90895990F0008550FAA0BF7
S11318B0E0E8FEEF16161706E807F907C0F012165F
S11318C01306E407F50798F0621B730B840B950B62
S11318D039F40A2661F0232B242B252B21F40895B7
S11318E00A2609F4A140A6958FEF811D811D089554
S11318F097F99F6780E870E060E008959FEF80ECBF
S1131900089500240A941616170618060906089561
S113191000240A9412161306140605060895092EC7
S11319200394000C11F4882352F0BB0F40F4BF2B36
S113193011F460FF04C06F5F7F4F8F4F9F4F089576
S113194057FD9058440F551F59F05F3F71F047956C
S1131950880F97FB991F61F09F3F79F08795089551
S1131960121613061406551FF2CF4695F1DF08C070
S1131970161617061806991FF1CF8695710561058D
S113198008940895E894BB2766277727CB0197F935
S113199008950BD0C4CFB5DF28F0BADF18F0952333
S11319A009F0A6CFABCF1124EECFCADFA0F3959FE9
S11319B0D1F3950F50E0551F629FF001729FBB2732
S11319C0F00DB11D639FAA27F00DB11DAA1F649FDE
S11319D06627B00DA11D661F829F2227B00DA11D91
S11319E0621F739FB00DA11D621F839FA00D611D17
S11319F0221F749F3327A00D611D231F849F600D38
S1131A00211D822F762F6A2F11249F5750408AF070
S1131A10E1F088234AF0EE0FFF1FBB1F661F771FFC
S1131A20881F91505040A9F79E3F510570F060CF38
S1131A30AACF5F3FECF3983EDCF3869577956795E4
S1131A40B795F795E7959F5FC1F7FE2B880F911D1A
S1131A509695879597F90895FB01DC010D90002078
S1131A60E9F7119701900D920020E1F70895BB2743
S1131A704A3031F4992322F4BDE2909581959F4F29
S1131A800C94430DBB27FB015527AA27880F991FE8
S1131A90AA1FA41710F0A41B83955051B9F7A05D99
S1131AA0AA3308F0A95DA193009779F7B111B19316
S1131AB01192CB010C94F10E0F931F93CF93DF93EC
S1131AC0EC018B01009731F46115710519F480E084
S1131AD090E038C06EE070E081E090E00E94A70DD5
S1131AE0FC010097A1F380E883830115110571F0CF
S1131AF01387028781E88383809163039091640351
S1131B00892B21F4F0936403E09363032097C9F0D5
S1131B10D187C0878381826083838091650390919C
S1131B206603892B71F4F0936603E0936503809157
S1131B30670390916803892B21F4F0936803E09381
S1131B406703CF01DF91CF911F910F9108950F93F8
S1131B501F93CF93DF93869F8001879F100D969FDD
S1131B60100D1124C8010E94C30DEC01009729F047
S1131B70A80160E070E00E94EA0ECE01DF91CF91EF
S1131B801F910F910895CF93DF938230910510F444
S1131B9082E090E0E0916B03F0916C0320E030E090
S1131BA0A0E0B0E0309739F14081518148175907DE
S1131BB0B8F04817590771F482819381109729F07E
S1131BC013969C938E9312972CC090936C038093DE
S1131BD06B0327C02115310531F04217530718F064
S1131BE0A901DB0101C0EF019A01BD01DF010280FF
S1131BF0F381E02DD7CF21153105F9F0281B390BDE
S1131C002430310580F48A819B816115710521F0AE
S1131C10FB019383828304C090936C0380936B03D2
S1131C20FE01329644C0FE01E20FF31F81939193AB
S1131C3022503109398328833AC0209169033091B5
S1131C406A03232B41F42091020130910301309364
S1131C506A03209369032091000130910101211549
S1131C60310541F42DB73EB740910401509105016F
S1131C70241B350BE0916903F0916A03E217F30723
S1131C80A0F42E1B3F0B2817390778F0AC014E5FE8
S1131C905F4F2417350748F04E0F5F1F50936A03B8
S1131CA0409369038193919302C0E0E0F0E0CF0197
S1131CB0DF91CF910895CF93DF93009709F487C004
S1131CC0FC01329713821282C0916B03D0916C0392
S1131CD0209781F420813181280F391F8091690375
S1131CE090916A038217930779F5F0936A03E0935E
S1131CF069036DC0DE0120E030E0AE17BF0750F489
S1131D0012964D915C9113979D014115510509F16E
S1131D10DA01F3CFB383A28340815181840F951FED
S1131D208A179B0771F48D919C911197840F951FCD
S1131D3002969183808312968D919C91139793833D
S1131D4082832115310529F4F0936C03E0936B032E
S1131D503EC0D9011396FC93EE9312974D915D9179
S1131D60A40FB51FEA17FB0779F480819181840FD2
S1131D70951F0296D90111969C938E93828193812B
S1131D8013969C938E931297E0E0F0E08A819B81F6
S1131D90009719F0FE01EC01F9CFCE0102962881DB
S1131DA03981820F931F2091690330916A032817A8
S1131DB0390769F4309729F410926C0310926B037D
S1131DC002C013821282D0936A03C0936903DF9125
S1131DD0CF910895DC0101C06D9341505040E0F76C
S1131DE00895DC01FC01672F71917723E1F73297A5
S1131DF004C07C916D9370836291AE17BF07C8F3E2
S1091E000895F894FFCFE1
S1131E0600006D0320000014060000FF000000FF20
S1131E16000000FF000000FF00001200100000FF99
S1131E26000000FF000000FF000000FF000A4368F6
S1131E36696C6472656E206F662025730A002564DA
S1131E463A2025730A0052657475726E00203E00AE
S1131E564D61696E206D656E75004E65772067610C
S1131E666D650053657474696E67730048696768C5
S1131E7673636F7265004D697363004D6F6465002B
S1131E8643616C6962726174696F6E000A506172B3
S1131E96656E74206F66202573202D3E2025730AF7
S1131EA6004E6F20706172656E74732E2E2E00477D
S1131EB6616D652073746172746564210020593AFA
S1131EC620004C697665733A200047616D65206F82
S1131ED67665722100507265737320616E79206293
S1131EE67574746F6E00746F20636F6E74696E75AB
S1131EF6650041646A75737420504944004B703A16
S1131F0620302E002020202041626F757400506915
S1131F166E6720706F6E672067616D6500202020F4
S1131F266D616465206279004B6A6574696C20543E
S1131F36686F7273656E004A6F6E20452E20537467
S1131F4672616E64656E0053656C656374206D6FB3
S1131F566465004A6F79737469636B004B696E65D7
S10D1F666374004D6F64653A2000B7
S9030000FC
