S00D00004E6F6465312E7372656360
S11300000C94B4010C94D1010C94D1010C94D10141
S11300100C94D1010C94D1010C94D1010C94D10114
S11300200C94D1010C94D1010C94D1010C94D10104
S11300300C94D1010C94D1010C94D1010C94D101F4
S11300400C94D1010C94D1010C94D1010C94D101E4
S11300500C94D1010C94D1010C94D1010C94D101D4
S11300600C94D1010C94D1010C94D1010C94D101C4
S1130070000000000000000000065F5F06000000B2
S11300800007070007070000147F7F147F7F140018
S1130090242E6B6B3A120000466630180C66620020
S11300A0307A4F5D377A48000407030000000000EF
S11300B0001C3E63410000000041633E1C00000040
S11300C0082A3E1C1C3E2A0808083E3E0808000078
S11300D000A0E0600000000008080808080800000C
S11300E000006060000000006030180C060301008E
S11300F03E7F594D7F3E000042427F7F40400000DA
S1130100627359496F660000226349497F360000D3
S1130110181C16137F7F1000276745457D390000A2
S11301203C7E4B4979300000036371190F070000CE
S1130130367F49497F360000064F49693F1E00005B
S113014000006C6C0000000000A0EC6C00000000DB
S1130150081C366341000000141414141414000025
S1130160004163361C080000020351590F060000C9
S11301703E7F415D5D1F1E007C7E13137E7C00006C
S1130180417F7F49497F36001C3E63414163220021
S1130190417F7F41637F1C00417F7F495D41630054
S11301A0417F7F491D0103001C3E6341517372006E
S11301B07F7F08087F7F000000417F7F41000000AF
S11301C0307040417F3F0100417F7F081C7763000E
S11301D0417F7F41406070007F7F060C067F7F0077
S11301E07F7F060C187F7F001C3E6341633E1C002A
S11301F0417F7F49090F06001E3F21717F5E000089
S1130200417F7F19396F460026674D597B320000C4
S113021003417F7F410300007F7F40407F7F0000D8
S11302201F3F60603F1F00007F7F3018307F7F00DA
S113023063771C081C776300074F78784F0700002A
S11302406773594D47637100007F7F41410000008F
S11302500103060C183060000041417F7F0000005C
S1130260080C0603060C0800808080808080808053
S11302700000030704000000207454543C7840003C
S1130280413F7F44447C3800387C44446C2800005F
S1130290307848493F7F4000387C54545C18000053
S11302A0487E7F490302000098BCA4A4F87C0400A3
S11302B0417F7F08047C780000447D7D400000007D
S11302C040C484FD7D000000417F7F10386C4400F1
S11302D000417F7F400000007C7C0C180C7C78007F
S11302E07C7C04047C780000387C44447C38000026
S11302F084FCF8A4243C1800183C24A4F8FC8400D2
S1130300447C78441C180000485C54547424000055
S113031000043E7F442400003C7C40403C7C400080
S11303201C3C60603C1C00003C7C6030607C3C00F9
S1130330446C3810386C44009CBCA0A0FC7C0000C9
S11303404C64745C4C64000008083E774141000032
S113035000000077770000004141773E0808000064
S1130360020301030203010011241FBECFEFD4E0F6
S1130370DEBFCDBF11E0A0E0B1E0E8E2FFE102C0E2
S113038005900D92AE3FB107D9F722E0AEEFB1E090
S113039001C01D92A63EB207E1F70E94B8060C9474
S11303A0920F0C9400008330910539F0843091054C
S11303B031F0029731F084E005C086E003C087E0A5
S11303C001C085E0E0910601F091070180838FEF81
S11303D09FE20197F1F700C00000E0910601F0915F
S11303E00701808190E00895482F60EE8FE00E941D
S11303F0AB0308950E94D10380E00E94F4010895A4
S1130400EF92FF920F931F93CF93DF937C01FC0134
S113041060816295660F607E82E30E948703F70124
S1130420608166956695669581E30E948703F7016E
S1130430618185E30E948703F7018181882399F014
S113044087010E5F1F4FC0E0D0E0F80161918F017A
S11304508C2F8A5C0E9487032196F701218130E06A
S1130460C217D30794F381E80E949D03DF91CF91D3
S11304701F910F91FF90EF9008951F93CF93DF93F7
S1130480EC018CE20E9473038FEF9FE20197F1F776
S113049000C0000081E60E947303182F82E60E94C8
S11304A07303110F110F110F829586958770182B06
S11304B0188385E60E9473038F708983882369F00B
S11304C010E086E6810F0E947303FE01E10FF11D27
S11304D082831F5F89811817A0F340E061E08CE2FA
S11304E00E94AB03DF91CF911F9108954F925F92C9
S11304F06F927F92AF92BF92CF92DF92EF92FF9270
S11305000F931F93CF93DF9300D000D0CDB7DEB706
S113051069837A838B839C83C801B7010E94B608E0
S11305202B013C0120E030E0A9010E941B0981114C
S11305300CC020E030E040E05FE3C601B5010E945A
S11305406A0A0E948709CB0125C0A3019201C60152
S1130550B5010E941F0929813A814B815C810E9467
S11305606A0A0E9487092B013C01882777FD809540
S1130570982F0E94BA099B01AC01C601B5010E94E3
S11305801B09882334F4C601B5010E948709CB01F5
S113059001C0C2010F900F900F900F90DF91CF9187
S11305A01F910F91FF90EF90DF90CF90BF90AF908D
S11305B07F906F905F904F9008952F923F924F924B
S11305C05F926F927F928F929F92AF92BF92CF92DF
S11305D0DF92EF92FF920F931F93CF93DF9300D09C
S11305E000D000D0CDB7DEB74B011A0179010E94CB
S11305F0D3019E838D838FEF9FE20197F1F700C0B3
S11306000000F701808191812D813E8128173907EF
S113061014F431832083F801808191812D813E81FE
S11306208217930714F431832083B401882777FD5C
S11306308095982F0E94BA095B016C01F8016081D2
S11306407181882777FD8095982F0E94BA092B0124
S11306503C01F70160817181882777FD8095982F8F
S11306600E94BA0969837A838B839C832D813E819E
S1130670B901882777FD8095982F0E94BA098301D4
S1130680720129813A814B815C810E947602940136
S1130690992014F42F5F3F4F35952795A9014219EE
S11306A053094817590734F4220E331E8215930553
S11306B00CF4C90126960FB6F894DEBF0FBECDBF69
S11306C0DF91CF911F910F91FF90EF90DF90CF902A
S11306D0BF90AF909F908F907F906F905F904F905E
S11306E03F902F900895CF93C82F81E00E949308E4
S11306F083E00E948A088C2F0E948A080E948E0838
S1130700C82F80E00E9493088C2FCF910895CF9337
S1130710DF93D82FC62F81E00E94930882E00E94C5
S11307208A088D2F0E948A088C2F0E948A0880E0F4
S11307300E949308DF91CF910895CF93C82F81E051
S11307400E9493088C2F81680E948A0880E00E948E
S11307509308CF9108951F93CF93DF93182FD62F2B
S1130760C42F81E00E94930885E00E948A08812FAB
S11307700E948A088D2F0E948A088C2F0E948A0862
S113078080E00E949308DF91CF911F91089581E04A
S11307900E94930880EC0E948A0880E00E949308DB
S11307A008950E9483080E94C703089508958CE267
S11307B091E090931B0280931A020895089508957E
S11307C0CF93DF93CDB7DEB7C458D1090FB6F894F1
S11307D0DEBF0FBECDBF0E94D60760E070E080E0B0
S11307E090E00E949B0785E391E00E944E0780E120
S11307F0ECE1F1E0DE01119601900D928A95E1F7AA
S11308008E010D5F1F4F9E012F5F3F4F45E050E06B
S113081064E670E081E090E00E94DD020C5F1F4F0F
S11308209E012B5F3F4F45E050E064E670E082E0BC
S113083090E00E94DD020C5F1F4F9E01275F3F4F37
S113084045E050E064E670E083E090E00E94DD0261
S113085086B35E018BE7A80EB11C0F2EF8E5CF2EF0
S1130860FAE3DF2EF0E2EF2EF12CF02D8E010D5F76
S11308701F4F9E012F5F3F4F45E050E064E670E05C
S113088081E090E00E94DD02882E0C5F1F4F9E01E4
S11308902B5F3F4F45E050E064E670E082E090E07B
S11308A00E94DD02982E0C5F1F4F9E01275F3F4F71
S11308B045E050E064E670E083E090E00E94DD02F1
S11308C0182F06B3CE014B960E943D027D8C7A947C
S11308D04AE0BE016A5B7F4F882D90E00E94D80AEF
S11308E04AE0BE016B5D7F4F892D90E00E94D80ADB
S11308F04AE0BE0169597F4F872D90E00E94D80AD3
S1130900F501C082D182E282F382BE016A5B7F4F2D
S1130910C5010E94CD0AD5010D900020E9F7119779
S113092095E0E3E4F1E001900D929A95E1F7BE01C0
S11309306B5D7F4FC5010E94CD0A98E0E8E4F1E0C9
S1130940DE01AF58BF4F01900D929A95E1F7BE01B9
S113095069597F4FCE018F589F4F0E94CD0A63E0A3
S113096070E082E090E00E949B07CE018F589F4F79
S11309700E944E0783E0898B84E08A8B8B8A9C8A51
S113098001700D8B1E8BCE0141960E9400028FEFE9
S11309909FE20197F1F700C0000068CFEF92FF9249
S11309A00F931F93CF93DF937C0164E070E080E0AA
S11309B090E00E949B07D7018D919C910E944E0765
S11309C0F7012689378912161306D4F487010C5FC0
S11309D01F4FC0E0D0E064E070E0CE0102960E94B8
S11309E09B07D801ED91FD918D01808191810E9439
S11309F04E072196F70126893789C217D3075CF37E
S1130A00D70112968D919C911397892B51F064E034
S1130A1070E0C90102960E949B0789E691E00E945A
S1130A204E07DF91CF911F910F91FF90EF900895A2
S1130A308F929F92AF92BF92CF92DF92EF92FF92EA
S1130A400F931F93CF93DF930E94D60761E070E06A
S1130A5082E090E00E949B0780E791E00E944E07AD
S1130A60EAE7F2E083E791E0918380830F2EF2E3DB
S1130A70EF2EF2E0FF2EF02D8DE791E0D7018D935C
S1130A809C930F2EF2E08F2EF2E09F2EF02D86E83D
S1130A9091E0E4019983888302EC12E08FE891E00D
S1130AA0D8018D939C930F2EFAEAAF2EF2E0BF2E5D
S1130AB0F02D89E991E0E50199838883A2E9B2E008
S1130AC08FE991E011969C938E934AE152E084EA77
S1130AD091E0EA019983888322E632E08AEA91E090
S1130AE0E90199838883F0933502E093340260E945
S1130AF072E0EB01888199816C01CC0CDD1CE6016C
S1130B00C258DD4FF982E8820F2EF0EEEF2EF3E0AB
S1130B10FF2EF02DF0924702E0924602F093C502B8
S1130B20E093C402E601C058DD4F1983088306ED43
S1130B3013E01093D7020093D602F0930502E093DA
S1130B4004028C010C5F1F4F7801EE0CFF1CE701BF
S1130B50C658DD4F998288821092170210921602AD
S1130B60F0939502E0939402F601EC57FD4FB183A4
S1130B70A083FB01118300831092A7021092A602A6
S1130B8090921D0280921C02E8E1F2E08081918142
S1130B90EC01CC0FDD1FCA5FDD4F598348830196FA
S1130BA09183808387ED93E090932F0280932E02AC
S1130BB0B0936502A0936402E8EAF2E040815181B7
S1130BC0CA010296EC01CC0FDD1FCE56DD4F3983EE
S1130BD028832FED33E03093770220937602B0938D
S1130BE0AD02A093AC02DA01AA0FBB1FA856BD4FF9
S1130BF0AD92BC92918380838EED93E09093BF027B
S1130C008093BE028AE792E00E94CE0488E1EAE77C
S1130C10F2E0AAE4B2E001900D928A95E1F7DF9147
S1130C20CF911F910F91FF90EF90DF90CF90BF90E5
S1130C30AF909F908F9008950F931F93CF93DF935E
S1130C408C01EB010E94B90761E070E0C8018C0FD0
S1130C509D1F0E949B0780E791E00E944E07DF9151
S1130C60CF911F910F910895EF92FF920F931F93CD
S1130C70CF93DF93EC018901EE88FF88452B09F4BB
S1130C8070C02FEF3FEF82E0215030408040E1F709
S1130C9000C000C0FF92EF9289ED91E09F938F9383
S1130CA00E94480BF80181818F9380818F9387EE96
S1130CB091E09F938F930E94480BF801808191816A
S1130CC02DB73EB7285F3F4F0FB6F8943EBF0FBE17
S1130CD02DBF8E159F05F1F418161906DCF485EF67
S1130CE091E00E945C0BEA81FB8188E1DE010190C6
S1130CF00D928A95E1F70E94D607CE010E94CE0498
S1130D00F8011182108262E070E080E090E00E94BD
S1130D101C0627C00296FC01EE0FFF1FEC0FFD1FFF
S1130D200190F081E02D84819581892BB1F088E1D7
S1130D30DE0101900D928A95E1F7F801118210828B
S1130D400E94D607CE010E94CE0462E070E0F80152
S1130D50808191810E941C0604C00488F589E02DDD
S1130D600995DF91CF911F910F91FF90EF90089516
S1130D700E94A8080E9499080E94EC070E94180586
S1130D800E94FA01C0E6D2E00F2EFCE4EF2EF2E05E
S1130D90FF2EF02D0EE011E02CE031E045E050E0B4
S1130DA064E670E082E090E00E94DD02182F46B312
S1130DB0288139813093FF012093FE014170682F0F
S1130DC0772767FD709520E032E050E08AE492E0F6
S1130DD00E9434061233F1F2183374F020910002A9
S1130DE030910102121613063CF42150310930935C
S1130DF001022093000223C01D320CF52091FE0154
S1130E003091FF018091000290910102A9014150AB
S1130E1051098417950734F4019690930102809345
S1130E2000020DC08217930754F4F7012081318129
S1130E30232B29F0019690930102809300020E94D3
S1130E40B907809100029091010261E070E002967E
S1130E500E949B0780E791E00E944E07FFEF2FE777
S1130E6081E0F15020408040E1F700C000C092CF03
S1130E7028E0829FC0011124FC01E059F04020E0E9
S1130E8030E0A0911801B091190184918C932F5FE7
S1130E903F4F319628303105A1F70895CF93DF9362
S1130EA0EC018881882331F021960E9438078991CA
S1130EB08111FBCFDF91CF910895E0911A01F09158
S1130EC01B0181E28083E0911A01F0911B011082E1
S1130ED0E0911A01F0911B018FE78083E0911A01E0
S1130EE0F0911B0182E28083E0911A01F0911B01D1
S1130EF01082E0911A01F0911B0187E0808308952C
S1130F00CF93C82F0E945D07C83098F4C093DB02CA
S1130F10E0911A01F0911B011082E0911A01F09105
S1130F201B0180E18083E0911A01F0911B01C06BE9
S1130F30C083CF910895CF93C62F90E00E9480077D
S1130F40C031A8F48C2F880F880F880F8093DA02A1
S1130F50E0911A01F0911B016C2F70E07695679572
S1130F606083E0911A01F0911B01605F6083CF916F
S1130F7008951F93CF93DF93C0E010E1D0E060E0C9
S1130F808C2F0E949B07212F3D2FE0911801F09197
S1130F90190110822150310921153105B1F7CF5FB4
S1130FA0C83069F7DF91CF911F91089520EB40E895
S1130FB030E0E0911A01F0911B012083842F932FDC
S1130FC0E0911801F0911901108201970097C1F77F
S1130FD02F5F283B71F70895E0911A01F0911B01EE
S1130FE08EEA8083E0911A01F0911B0181EA8083EB
S1130FF0E0911A01F0911B018AED8083E0911A01BE
S1131000F0911B0182E18083E0911A01F0911B01B0
S113101088EC8083E0911A01F0911B0188EA8083B7
S1131020E0911A01F0911B018FE38083E0911A0192
S1131030F0911B0185ED8083E0911A01F0911B0171
S113104080E88083E0911A01F0911B0181E880839C
S1131050E0911A01F0911B0180E58083E0911A016F
S1131060F0911B0189ED8083E0911A01F0911B013D
S113107081E28083E0911A01F0911B0180E2808378
S1131080E0911A01F0911B0182E08083E0911A0142
S1131090F0911B018BED8083E0911A01F0911B010B
S11310A080E38083E0911A01F0911B018DEA808333
S11310B0E0911A01F0911B011082E0911A01F09164
S11310C01B0184EA8083E0911A01F0911B0186EAF6
S11310D08083E0911A01F0911B018FEA8083E091F3
S11310E01A01F0911B0180EB8083E0911A01F091C9
S11310F01B011082E0911A01F0911B0180E18083B1
S11311000E94D607089587B3806B87BB8DB1816534
S11311108DB908958FB9779BFECF089580E00E9422
S11311208A088FB10895882311F0C4980895C49A49
S1131130089585B7806885BF80B7806280BF0895B1
S11311405D9BFECF8CB908955F9BFECF8CB1089553
S113115010BC8FE189B988E18AB98EE880BD64EA60
S113116078E080EA98E00E94FD0A08955058BB2771
S1131170AA270ED075C166D130F06BD120F031F4BE
S11311809F3F11F41EF45BC10EF4E095E7FB51C1DF
S1131190E92F77D180F3BA1762077307840795079D
S11311A018F071F49EF58FC10EF4E0950B2EBA2F52
S11311B0A02D0B01B90190010C01CA01A001112459
S11311C0FF27591B99F0593F50F4503E68F11A1605
S11311D0F040A22F232F342F4427585FF3CF469596
S11311E037952795A795F0405395C9F77EF41F16B8
S11311F0BA0B620B730B840BBAF09150A1F0FF0F82
S1131200BB1F661F771F881FC2F70EC0BA0F621F6D
S1131210731F841F48F4879577956795B795F7955D
S11312209E3F08F0B3CF9395880F08F09927EE0FEF
S1131230979587950895D9D008F481E008950CD046
S11312400FC107D140F0FED030F021F45F3F19F018
S1131250F0C0511139C1F3C014D198F39923C9F3E3
S11312605523B1F3951B550BBB27AA2762177307A8
S1131270840738F09F5F5F4F220F331F441FAA1F5C
S1131280A9F333D00E2E3AF0E0E830D0915050401C
S1131290E695001CCAF729D0FE2F27D0660F771FCA
S11312A0881FBB1F261737074807AB07B0E809F0AC
S11312B0BB0B802DBF01FF2793585F4F2AF09E3F41
S11312C0510568F0B6C000C15F3FECF3983EDCF313
S11312D0869577956795B795F7959F5FC9F7880FBA
S11312E0911D9695879597F90895E1E0660F771F0C
S11312F0881FBB1F621773078407BA0720F0621B9D
S1131300730B840BBA0BEE1F88F7E095089504D095
S11313106894B111D9C00895BCD088F09F5790F05B
S1131320B92F9927B751A0F0D1F0660F771F881F06
S1131330991F1AF0BA95C9F712C0B13081F0C3D021
S1131340B1E00895C0C0672F782F8827B85F39F0BF
S1131350B93FCCF3869577956795B395D9F73EF465
S113136090958095709561957F4F8F4F9F4F08950D
S1131370E89409C097FB3EF490958095709561952B
S11313807F4F8F4F9F4F9923A9F0F92F96E9BB27E1
S11313909395F695879577956795B795F111F8CF5D
S11313A0FAF4BB0F11F460FF1BC06F5F7F4F8F4FC8
S11313B09F4F16C0882311F096E911C0772321F0BE
S11313C09EE8872F762F05C0662371F096E8862F56
S11313D070E060E02AF09A95660F771F881FDAF7AD
S11313E0880F9695879597F90895990F0008550FDA
S11313F0AA0BE0E8FEEF16161706E807F907C0F097
S113140012161306E407F50798F0621B730B840B9E
S1131410950B39F40A2661F0232B242B252B21F478
S113142008950A2609F4A140A6958FEF811D811D18
S1131430089597F99F6780E870E060E008959FEF52
S113144080EC089500240A94161617061806090657
S1131450089500240A941216130614060506089526
S1131460092E0394000C11F4882352F0BB0F40F4AE
S1131470BF2B11F460FF04C06F5F7F4F8F4F9F4FEE
S1131480089557FD9058440F551F59F05F3F71F070
S11314904795880F97FB991F61F09F3F79F08795D7
S11314A00895121613061406551FF2CF4695F1DF60
S11314B008C0161617061806991FF1CF86957105F0
S11314C0610508940895E894BB2766277727CB0124
S11314D097F908950BD0C4CFB5DF28F0BADF18F020
S11314E0952309F0A6CFABCF1124EECFCADFA0F32A
S11314F0959FD1F3950F50E0551F629FF001729FA5
S1131500BB27F00DB11D639FAA27F00DB11DAA1FC3
S1131510649F6627B00DA11D661F829F2227B00D10
S1131520A11D621F739FB00DA11D621F839FA00D9B
S1131530611D221F749F3327A00D611D231F849FEB
S1131540600D211D822F762F6A2F11249F57504042
S11315508AF0E1F088234AF0EE0FFF1FBB1F661FDD
S1131560771F881F91505040A9F79E3F510570F096
S113157060CFAACF5F3FECF3983EDCF38695779576
S11315806795B795F795E7959F5FC1F7FE2B880F91
S1131590911D9695879597F90895FB01DC010D90AF
S11315A00020E9F7119701900D920020E1F70895CA
S11315B0BB274A3031F4992322F4BDE290958195FA
S11315C09F4F0C94E40ABB27FB015527AA27880FD9
S11315D0991FAA1FA41710F0A41B83955051B9F7A3
S11315E0A05DAA3308F0A95DA193009779F7B11122
S11315F0B1931192CB010C94BB0E0F931F93CF9315
S1131600DF93EC018B01009731F46115710519F436
S113161080E090E038C06EE070E081E090E00E94ED
S11316205B0DFC010097A1F380E88383011511058C
S113163071F01387028781E883838091DC029091A3
S1131640DD02892B21F4F093DD02E093DC02209784
S1131650C9F0D187C0878381826083838091DE0251
S11316609091DF02892B71F4F093DF02E093DE02A4
S11316708091E0029091E102892B21F4F093E10240
S1131680E093E002CF01DF91CF911F910F91089574
S1131690A0E0B0E0EEE4FBE00C946B0FFE013596A5
S11316A061917191AF018091DE029091DF020E94FD
S11316B0890BE2E00C94870F0F931F93CF93DF9372
S11316C0E091DE02F091DF02238121FF1BC0EC01D7
S11316D000E010E089916091DE027091DF02DB018D
S11316E01896ED91FC911997882331F00995892B6F
S11316F089F30FEF1FEFEECF8AE00995892B11F4E0
S1131700C80102C08FEF9FEFDF91CF911F910F911E
S11317100895ACE0B0E0EFE8FBE00C945B0F7C01D3
S11317206B018A01FC0117821682838181FFBDC18E
S1131730CE0101964C01F7019381F60193FD859149
S113174093FF81916F01882309F4ABC1853239F489
S113175093FD859193FF81916F01853229F4B7013F
S113176090E00E94CB0EE7CF512C312C20E02032A8
S1131770A0F48B3269F030F4803259F0833269F48A
S113178020612CC08D3239F0803339F4216026C0B9
S11317902260246023C0286021C027FD27C030EDCB
S11317A0380F3A3078F426FF06C0FAE05F9E300D19
S11317B01124532E13C08AE0389E300D1124332E89
S11317C020620CC08E3221F426FD6BC1206406C059
S11317D08C3611F4206802C0883641F4F60193FD7A
S11317E0859193FF81916F018111C1CF982F9F7DC6
S11317F09554933028F40C5F1F4FFFE3F9830DC019
S1131800833631F0833771F0833509F05BC022C031
S1131810F801808189830E5F1F4F44244394512C27
S1131820540115C03801F2E06F0E711CF801A0805C
S1131830B18026FF03C0652D70E002C06FEF7FEF1B
S1131840C5012C870E94B00E2C0183012C852F77B3
S1131850222E17C03801F2E06F0E711CF801A0802F
S1131860B18026FF03C0652D70E002C06FEF7FEFEB
S1131870C5012C870E949E0E2C012C852068222EE7
S1131880830123FC1BC0832D90E048165906B0F455
S1131890B70180E290E00E94CB0E3A94F4CFF501B8
S11318A027FC859127FE81915F01B70190E00E949A
S11318B0CB0E31103A94F1E04F1A510841145104FF
S11318C071F7E5C0843611F0893639F5F80127FF40
S11318D007C060817181828193810C5F1F4F08C0B2
S11318E060817181882777FD8095982F0E5F1F4F47
S11318F02F76B22E97FF09C09095809570956195CB
S11319007F4F8F4F9F4F2068B22E2AE030E0A40112
S11319100E94FD0EA82EA81844C0853729F42F7EF6
S1131920B22E2AE030E025C0F22FF97FBF2E8F3689
S1131930C1F018F4883579F0B4C0803719F08837CD
S113194021F0AFC02F2F2061B22EB4FE0DC08B2D1D
S11319508460B82E09C024FF0AC09F2F9660B92E58
S113196006C028E030E005C020E130E002C020E1FC
S113197032E0F801B7FE07C06081718182819381F2
S11319800C5F1F4F06C06081718180E090E00E5FA4
S11319901F4FA4010E94FD0EA82EA818FB2DFF774F
S11319A0BF2EB6FE0BC02B2D2E7FA51450F4B4FE13
S11319B00AC0B2FC08C02B2D2E7E05C07A2C2B2D1C
S11319C003C07A2C01C0752C24FF0DC0FE01EA0D62
S11319D0F11D8081803311F4297E09C022FF06C0E5
S11319E07394739404C0822F867809F0739423FD52
S11319F013C020FF06C05A2C731418F4530C571844
S1131A00732C731468F4B70180E290E02C870E9471
S1131A10CB0E73942C85F5CF731410F4371801C0D2
S1131A20312C24FF12C0B70180E390E02C870E9480
S1131A30CB0E2C8522FF17C021FF03C088E590E060
S1131A4002C088E790E0B7010CC0822F867859F075
S1131A5021FD02C080E201C08BE227FD8DE2B701C7
S1131A6090E00E94CB0EA51438F4B70180E390E017
S1131A700E94CB0E5A94F7CFAA94F401EA0DF11DFB
S1131A808081B70190E00E94CB0EA110F5CF3320E6
S1131A9009F451CEB70180E290E00E94CB0E3A9453
S1131AA0F6CFF7018681978102C08FEF9FEF2C96C6
S1131AB0E2E10C94770F0F931F93CF93DF93869FEC
S1131AC08001879F100D969F100D1124C8010E945C
S1131AD0770DEC01009729F0A80160E070E00E9406
S1131AE0A90ECE01DF91CF911F910F910895CF934D
S1131AF0DF938230910510F482E090E0E091E402FB
S1131B00F091E50220E030E0A0E0B0E0309739F158
S1131B104081518148175907B8F04817590771F4A3
S1131B2082819381109729F013969C938E93129738
S1131B302CC09093E5028093E40227C0211531055F
S1131B4031F04217530718F0A901DB0101C0EF017E
S1131B509A01BD01DF010280F381E02DD7CF211569
S1131B603105F9F0281B390B2430310580F48A81C2
S1131B709B816115710521F0FB019383828304C06D
S1131B809093E5028093E402FE01329644C0FE0184
S1131B90E20FF31F819391932250310939832883F3
S1131BA03AC02091E2023091E302232B41F42091C8
S1131BB00201309103013093E3022093E202209169
S1131BC00001309101012115310541F42DB73EB7D3
S1131BD04091040150910501241B350BE091E20270
S1131BE0F091E302E217F307A0F42E1B3F0B281732
S1131BF0390778F0AC014E5F5F4F2417350748F082
S1131C004E0F5F1F5093E3024093E202819391933E
S1131C1002C0E0E0F0E0CF01DF91CF910895CF93CF
S1131C20DF93009709F487C0FC0132971382128274
S1131C30C091E402D091E502209781F420813181A2
S1131C40280F391F8091E2029091E30282179307D3
S1131C5079F5F093E302E093E2026DC0DE0120E047
S1131C6030E0AE17BF0750F412964D915C91139774
S1131C709D014115510509F1DA01F3CFB383A28324
S1131C8040815181840F951F8A179B0771F48D91B0
S1131C909C911197840F951F0296918380831296CD
S1131CA08D919C911397938382832115310529F497
S1131CB0F093E502E093E4023EC0D9011396FC934D
S1131CC0EE9312974D915D91A40FB51FEA17FB0790
S1131CD079F480819181840F951F0296D901119620
S1131CE09C938E938281938113969C938E931297E7
S1131CF0E0E0F0E08A819B81009719F0FE01EC019D
S1131D00F9CFCE01029628813981820F931F209149
S1131D10E2023091E3022817390769F4309729F475
S1131D201092E5021092E40202C013821282D09350
S1131D30E302C093E202DF91CF910895FC01059084
S1131D40615070400110D8F7809590958E0F9F1FB9
S1131D500895DC0101C06D9341505040E0F70895AF
S1131D60FC016150704001900110D8F78095909566
S1131D708E0F9F1F0895DC01FC01672F719177235B
S1131D80E1F7329704C07C916D9370836291AE1732
S1131D90BF07C8F308950F931F93CF93DF93182FB2
S1131DA0092FEB018B8181FD03C08FEF9FEF20C0D2
S1131DB082FF10C04E815F812C813D814217530701
S1131DC07CF4E881F9819F012F5F3F4F3983288399
S1131DD0108306C0E885F985812F0995892B29F799
S1131DE02E813F812F5F3F4F3F832E83812F902F82
S1131DF0DF91CF911F910F910895FA01AA272830FE
S1131E0051F1203181F1E8946F936E7F6E5F7F4FC3
S1131E108F4F9F4FAF4FB1E03ED0B4E03CD0670F3F
S1131E20781F891F9A1FA11D680F791F8A1F911D92
S1131E30A11D6A0F711D811D911DA11D20D009F4E2
S1131E4068943F912AE0269F11243019305D319324
S1131E50DEF6CF010895462F4770405D4193B3E00D
S1131E600FD0C9F7F6CF462F4F70405D4A3318F0B4
S1131E70495D31FD4052419302D0A9F7EACFB4E065
S1131E80A6959795879577956795BA95C9F700971D
S1131E906105710508959B01AC010A2E06945795BE
S1131EA0479537952795BA95C9F7620F731F841F15
S1131EB0951FA01D08952F923F924F925F926F92AB
S1131EC07F928F929F92AF92BF92CF92DF92EF92C6
S1131ED0FF920F931F93CF93DF93CDB7DEB7CA1B47
S1131EE0DB0B0FB6F894DEBF0FBECDBF09942A8872
S1131EF0398848885F846E847D848C849B84AA841A
S1131F00B984C884DF80EE80FD800C811B81AA81A6
S1131F10B981CE0FD11D0FB6F894DEBF0FBECDBF71
S10B1F20ED010895F894FFCFD0
S1131F280000E602200000140000FF000000FF008B
S1131F380000FF000000FF00001200100000FF0076
S1131F480000FF000000FF000000FF00536F756EE3
S1131F5864206F6E0047616D6520737461727465E7
S1131F6864210020593A200053636F72653A2000B7
S1131F780A4368696C6472656E206F662025730A6B
S1131F880025643A2025730A0052657475726E0040
S1131F98203E004D61696E206D656E75004E657753
S1131FA82067616D650053657474696E67730048D2
S1131FB869676873636F72650041626F7574004D79
S1131FC869736300536F756E640043616C69627270
S1131FD86174696F6E000A506172656E74206F6671
S1131FE8202573202D3E2025730A004E6F20706132
S1131FF872656E74732E2E2E004D61786974656D4A
S1132008733A2025640A004D656E754974656D3A06
S11120182025640A00484A454C5045530000F8
S9030000FC
