:10000000C2C00000E0C00000DEC00000DCC0000094
:10001000DAC00000D8C00000D6C00000D4C0000084
:10002000D2C00000D0C00000CEC00000CCC0000094
:10003000CAC00000C8C00000C6C00000C4C00000A4
:10004000C2C00000C0C00000BEC00000BCC00000B4
:10005000BAC00000B8C00000B6C00000B4C00000C4
:10006000B2C00000B0C00000AEC00000ACC00000D4
:10007000AAC00000A8C00000A6C00000A4C00000E4
:10008000A2C00000A0C000009EC000009CC00000F4
:100090009AC0000098C0000096C00000D0C40000C4
:1000A00092C0000090C000008EC000008CC0000014
:1000B0008AC0000088C0000086C0000084C0000024
:1000C00082C0000080C000007EC000007CC0000034
:1000D0007AC0000078C0000076C0000074C0000044
:1000E00072C000003A058C058C058C058C058C05CA
:1000F0008C058C053A058C058C058C058C058C05CA
:100100008C058C053C058C058C058C058C058C05B7
:100110008C058C058C058C058C058C058C058C0557
:100120008C058C053C058C058C058C058C058C0597
:100130008C058C058C058C058C058C058C058C0537
:100140008C058C0588058C058C058C058C058C052B
:100150008C058C0565058C058C058C058C058C053E
:100160008C058C058C058C058C058C058C058C0507
:100170008C058C0559058C058C058C058C058C052A
:100180008C058C05770511241FBECFEFD1E2DEBFB1
:10019000CDBF00E00CBF12E0A0E0B2E0E0EFF6E17E
:1001A00000E00BBF02C007900D92AE3DB107D9F73A
:1001B00023E0AEEDB2E001C01D92AD35B207E1F72C
:1001C00028D30C94760B1CCFEAE7F0E08081876897
:1001D0008083ECE7F0E08081806480830895EF9273
:1001E000FF920F931F93CF93DF93CDB7DEB7C65621
:1001F000D1090FB6F894DEBF0FBECDBFFE01319618
:1002000026E6DF011D922A95E9F724E433E0EEEDBE
:10021000F2E05081418181939193E217F30719F045
:10022000852F942FF6CFBE016F5F7F4FDB01EEED80
:10023000F2E0819191918D939D93E217F307C9F7B5
:10024000AE0149595F4F7B01062F172F17C0D70109
:100250008D919C91208131818217930728F4DB01D5
:100260002D933C93918380833296E417F50779F7B9
:10027000B2E0EB0EF11CE416F50621F0E02FF12FB1
:10028000B701E5CF8DA99EA9CA59DF4F0FB6F894E3
:10029000DEBF0FBECDBFDF91CF911F910F91FF90B9
:1002A000EF900895ECE7F0E090818770987F982BAD
:1002B0009083EAE7F0E0808180648083808186FD1E
:1002C000FDCF80917800909179000895482F60EEDD
:1002D0008FE050C108956FD363D18CE092E0FDD5DB
:1002E00040E660E680E646D140E064E080E642D148
:1002F00043E06FEF8BE23ED180E0E8DF8EE00FD18C
:10030000982F907E903481F09038D1F0911123C0D5
:100310001F928F938EE192E09F938F93CDD50F9094
:100320000F900F900F9017C01F928F938AE392E067
:100330009F938F93C1D50F900F900F900F900BC08C
:100340001F928F9388E592E09F938F93B5D50F907E
:100350000F900F900F9084E792E0BFC50895EF9241
:10036000FF920F931F93CF93DF937C01FC01608179
:100370006295660F607E82E3E1D0F7016081669549
:100380006695669581E3DAD0F701618185E3D6D081
:10039000F7018181882391F087010E5F1F4FC0E034
:1003A000D0E0F80161918F018C2F8A5CC7D0219633
:1003B000F701218130E0C217D3079CF381E8CFD049
:1003C000DF91CF911F910F91FF90EF9008951F93B0
:1003D000CF93DF93EC018EE0A2D08C7019F181E60F
:1003E0009ED0182F82E69BD0110F110F110F82950E
:1003F00086958770182B188385E691D08F70898336
:10040000882361F010E086E6810F89D0FE01E10FBC
:10041000F11D82831F5F89811817A8F340E061E016
:100420008CE2A8D0DF91CF911F910895CF93DF93F5
:1004300000D0CDB7DEB7909144039770990F9065C7
:10044000998387708A836B8363E0CE010196D5D24E
:100450000F900F900F90DF91CF91089580935203EA
:100460000895CF93DF9381E01DDFB9DEEC01CC0F5F
:10047000DD1F880F991F880F991F880F991FC80FBC
:10048000D91FDF93CF938BEA92E09F938F9314D57C
:100490000F900F900F900F902497A8F48091520323
:1004A00081508093520381E0FDDE99DE9C01220F92
:1004B000331F880F991F880F991F880F991F820F6C
:1004C000931F049780F3DF91CF910895EAE0F1E064
:1004D000808181608083EBE0F1E0808181608083B6
:1004E0000895813019F46135A0F004C0811111C064
:1004F000662379F0EBE0F1E08081816080832FEF6B
:1005000080E792E0215080409040E1F700C0000079
:100510000895EBE0F1E080818E7F80830895CF9392
:10052000C82F81E059D283E04ED28C2F4CD250D2CA
:10053000C82F80E051D28C2FCF910895CF93DF93B5
:10054000D82FC62F81E048D282E03DD28D2F3BD2FA
:100550008C2F39D280E040D2DF91CF910895CF9394
:10056000C82F81E039D28C2F81682DD280E034D21F
:10057000CF9108951F93CF93DF93182FD62FC42FB9
:1005800081E02AD285E01FD2812F1DD28D2F1BD270
:100590008C2F19D280E020D2DF91CF911F91089546
:1005A00081E01AD280EC0FD28FE39CE90197F1F73A
:1005B00000C0000080E010C20895E2E0F1E0808118
:1005C0008F7B80838AE68A95F1F700C08081806402
:1005D000808308957894E1E0F1E0808182618083F6
:1005E000808188668083E2E0F1E0808180618083A1
:1005F000808180628083808180648083DECF0895E3
:10060000882331F0E2E0F1E080818D7F80830895DE
:10061000E2E0F1E08081826080830895E2E0F1E031
:1006200080818F7D80838081877F80838AE68A9521
:10063000F1F700C0209106018081886080838AE6FE
:100640008A95F1F700C08091060190E0922B90937B
:100650004603809345030895FC01608170E080E0CB
:1006600090E0C4D22DEC3CEC4CEC5DE323D36093E2
:10067000060270930702809308029093090208957E
:10068000CF92DF92EF92FF920F931F93CF93DF935E
:10069000182FC4DFEC01612F70E080E090E0A6D25B
:1006A00020E030E040EA52E405D36DD29E01DD2324
:1006B00024F4222733272C1B3D0B8B01021B130B29
:1006C0002CE92003E001219FD00D112480914703E4
:1006D00090914803C80FD91F8091490390914A0314
:1006E000800F911F9C01992324F422273327281B74
:1006F000390B21343F412CF490934A0380934903F2
:100700000FC099233CF080E49FE190934A038093CB
:10071000490306C080EC90EE90934A03809349030E
:10072000B801882777FD8095982F60D22091060226
:10073000309107024091080250910902BBD223D2A6
:100740006B017C016091490370914A03882777FD12
:100750008095982F4BD22DEC3CEC4CEC5DE3AAD26B
:1007600012D2C60ED71EBE01882777FD8095982F1E
:100770003DD22AE037ED43E25CE39CD204D26C0D1B
:100780007D1DCB01772324F488279927861B970B9F
:1007900081349F4114F060E47FE11093480300939B
:1007A0004703CB01DF91CF911F910F91FF90EF9005
:1007B000DF90CF9008950F931F93CF93DF9360DF67
:1007C00064E170E002D3EB018B0177231CF481E03C
:1007D00017DF02C080E014DF80910A0290E09E01E2
:1007E000112324F4222733272C1B3D0B8217930758
:1007F0000CF0CE01BC01992324F466277727681BEF
:10080000790B80E090E012DEDF91CF911F910F9184
:100810000895CF93DF93CDB7DEB764970FB6F89402
:10082000DEBF0FBECDBF9ED156DD8BD0CDDC4EDE00
:10083000D1DED9D082E0898381E08A838CEB92E09B
:100840004CD38AE00BDE03ED12E0CE010B96BFDD48
:100850008B89882309F469C0CE014196FDDEFA88B0
:10086000FF2021F021E0F21629F040C0DD84CF8482
:10087000E8883CC082E016DD99231CF491958195AF
:100880009109BC01882777FD8095982FAFD12DEC79
:100890003CEC4CEC5DE30ED27BD1E62E83E002DD36
:1008A00099231CF4919581959109BC01882777FDC6
:1008B0008095982F9BD12DEC3CEC4CEC5DE3FAD16C
:1008C00067D1D62E84E0EEDC99231CF491958195B6
:1008D0009109BC01882777FD8095982F87D12DEC51
:1008E0003CEC4CEC5DE3E6D153D1C62E8D2D49D0C6
:1008F0006C2D8F2DF6DD8E2D90E05DDFB2DD8FE368
:100900009CE90197F1F700C00000809152038B83AE
:100910001F928F931F930F93CFD2CE0101961FDDAD
:100920000F900F900F900F9002C08AE097DD9FEF1D
:1009300023EC89E0915020408040E1F700C00000A6
:1009400084CFA0E9B0E08C9183608C93E1E9F0E082
:100950008081886180838DB188638DB984EA8093BA
:1009600099008FE0809398008C91886A8C938C9189
:100970008B7A8C9380818260808380818A7F808360
:10098000089524E1829FC0011124885F984F883028
:1009900027E0920738F0863620E1920728F085E6B6
:1009A00090E102C088E097E09C01332720939A00F1
:1009B00090939B00089584B1876884B92F9A8CB571
:1009C00081658CBD08958EBD0DB407FEFDCF0895E1
:1009D00080E0F9DF8EB50895813019F485B115B83E
:1009E00008952F9A08958CE08093B8008FEF80933C
:1009F000BB0084E08093BC000895ECEBF0E0208124
:100A000020FDFDCF60934D03FC01208120934E0318
:100A100020FD0CC0623050F0DC011196EFE4F3E0F1
:100A200081E09D9191938F5F8613FBCF10924C03D1
:100A300088EF80930B0285EA8093BC0008951F9293
:100A40000F920FB60F9211240BB60F922F933F9374
:100A50008F939F93AF93BF93EF93FF938091B900D0
:100A600090E0FC013897E135F10508F055C0EE58EB
:100A7000FF4FBEC110924B03E0914B0380914D0399
:100A8000E81770F481E08E0F80934B03F0E0E25B97
:100A9000FC4F80818093BB0085E88093BC0043C0FD
:100AA00080914C03816080934C0384E98093BC0067
:100AB0003AC0E0914B0381E08E0F80934B0380910D
:100AC000BB00F0E0E25BFC4F808320914B0330E001
:100AD00080914D0390E001972817390724F485ECA5
:100AE0008093BC0020C085E88093BC001CC080912E
:100AF000BB00E0914B03F0E0E25BFC4F8083809110
:100B00004C03816080934C0384E98093BC000BC04C
:100B100085EA8093BC0007C08091B90080930B02E6
:100B200084E08093BC00FF91EF91BF91AF919F91C2
:100B30008F913F912F910F900BBE0F900FBE0F9092
:100B40001F901895E0ECF0E0908195FFFDCF809329
:100B5000C6000895E0ECF0E080818823ECF78091F6
:100B6000C60008951092C50087E68093C40088E10E
:100B70008093C10086E08093C2006AEA75E082EA51
:100B800095E050C1089504D06894B1118DC00895C6
:100B900070D088F09F5790F0B92F9927B751A0F0E7
:100BA000D1F0660F771F881F991F1AF0BA95C9F701
:100BB00012C0B13081F077D0B1E0089574C0672FD2
:100BC000782F8827B85F39F0B93FCCF386957795B1
:100BD0006795B395D9F73EF490958095709561959A
:100BE0007F4F8F4F9F4F0895E89409C097FB3EF4C5
:100BF00090958095709561957F4F8F4F9F4F99236A
:100C0000A9F0F92F96E9BB279395F69587957795E7
:100C10006795B795F111F8CFFAF4BB0F11F460FFA7
:100C20001BC06F5F7F4F8F4F9F4F16C0882311F0FF
:100C300096E911C0772321F09EE8872F762F05C013
:100C4000662371F096E8862F70E060E02AF09A95AE
:100C5000660F771F881FDAF7880F9695879597F9A3
:100C6000089557FD9058440F551F59F05F3F71F09C
:100C70004795880F97FB991F61F09F3F79F0879503
:100C80000895121613061406551FF2CF4695F1DF8C
:100C900008C0161617061806991FF1CF869571051C
:100CA000610508940895E894BB2766277727CB0150
:100CB00097F908950BD078C069D028F06ED018F05D
:100CC000952309F05AC05FC01124EECFCADFA0F30C
:100CD000959FD1F3950F50E0551F629FF001729FD1
:100CE000BB27F00DB11D639FAA27F00DB11DAA1FF0
:100CF000649F6627B00DA11D661F829F2227B00D3D
:100D0000A11D621F739FB00DA11D621F839FA00DC7
:100D1000611D221F749F3327A00D611D231F849F17
:100D2000600D211D822F762F6A2F11249F5750406E
:100D30008AF0E1F088234AF0EE0FFF1FBB1F661F09
:100D4000771F881F91505040A9F79E3F510570F0C2
:100D500014C0AACF5F3FECF3983EDCF386957795FD
:100D60006795B795F795E7959F5FC1F7FE2B880FBD
:100D7000911D9695879597F9089597F99F6780E853
:100D800070E060E008959FEF80EC089500240A94DD
:100D90001616170618060906089500240A94121656
:100DA0001306140605060895092E0394000C11F489
:100DB000882352F0BB0F40F4BF2B11F460FF04C036
:100DC0006F5F7F4F8F4F9F4F089597FB072E16F44D
:100DD000009406D077FD08D011D007FC05D03EF472
:100DE000909581959F4F0895709561957F4F0895D7
:100DF000EE0FFF1F0590F491E02D1994AA1BBB1B69
:100E000051E107C0AA1FBB1FA617B70710F0A61B0A
:100E1000B70B881F991F5A95A9F780959095BC012B
:100E2000CD0108950F931F93CF93DF93EC018B01B6
:100E3000009731F46115710519F480E090E037C036
:100E40006EE070E081E090E063D2FC010097A9F3CE
:100E500080E883830115110571F01387028781E80B
:100E600083838091530390915403892B21F4F09351
:100E70005403E09353032097C9F0D187C08783813F
:100E8000826083838091550390915603892B71F47E
:100E9000F0935603E09355038091570390915803C4
:100EA000892B21F4F0935803E0935703CF01DF918E
:100EB000CF911F910F910895CF93DF93CDB7DEB7F8
:100EC000FE01369661917191AF0180915503909129
:100ED000560330D0DF91CF9108950F931F93CF9396
:100EE000DF93E0915503F0915603238121FF1BC04E
:100EF000EC0100E010E08991609155037091560378
:100F0000DB011896ED91FC911997882331F0199522
:100F1000892B89F30FEF1FEFEECF8AE01995892B0C
:100F200011F4C80102C08FEF9FEFDF91CF911F91A5
:100F30000F9108952F923F924F925F926F927F92FE
:100F40008F929F92AF92BF92CF92DF92EF92FF92D9
:100F50000F931F93CF93DF93CDB7DEB72C970FB6C8
:100F6000F894DEBF0FBECDBF7C016B018A01FC018E
:100F700017821682838181FFB0C1CE0101964C0198
:100F8000F7019381F60193FD859193FF81916F01A4
:100F9000882309F49EC1853239F493FD859193FF2E
:100FA00081916F01853221F4B70190E00FD3E8CF32
:100FB000512C312C20E02032A0F48B3269F030F437
:100FC000803259F0833269F420612CC08D3239F0BF
:100FD000803339F4216026C02260246023C0286059
:100FE00021C027FD27C030ED380F3A3078F426FFB6
:100FF00006C0FAE05F9E300D1124532E13C08AE024
:10100000389E300D1124332E20620CC08E3221F414
:1010100026FD5FC1206406C08C3611F4206802C032
:10102000883641F4F60193FD859193FF81916F011C
:101030008111C1CF982F9F7D9554933028F40C5F78
:101040001F4FFFE3F9830DC0833631F0833771F012
:10105000833509F057C021C0F801808189830E5F74
:101060001F4F44244394512C540114C03801F2E022
:101070006F0E711CF801A080B18026FF03C0652DA2
:1010800070E002C06FEF7FEFC5012C8794D22C0176
:1010900083012C852F77222E16C03801F2E06F0EC7
:1010A000711CF801A080B18026FF03C0652D70E09F
:1010B00002C06FEF7FEFC5012C876BD22C012C850E
:1010C0002068222E830123FC19C0832D90E048164E
:1010D0005906A0F4B70180E290E078D23A94F5CFB7
:1010E000F50127FC859127FE81915F01B70190E012
:1010F0006DD231103A94F1E04F1A51084114510465
:1011000079F7DEC0843611F0893631F5F80127FF12
:1011100007C060817181828193810C5F1F4F08C07D
:1011200060817181882777FD8095982F0E5F1F4F12
:101130002F76B22E97FF09C0909580957095619596
:101140007F4F8F4F9F4F2068B22E2AE030E0A401DE
:101150006FD2A82EA81843C0853729F42F7EB22E4F
:101160002AE030E025C0F22FF97FBF2E8F36C1F084
:1011700018F4883579F0ADC0803719F0883721F040
:10118000A8C02F2F2061B22EB4FE0DC08B2D84601D
:10119000B82E09C024FF0AC09F2F9660B92E06C042
:1011A00028E030E005C020E130E002C020E132E07C
:1011B000F801B7FE07C060817181828193810C5F65
:1011C0001F4F06C06081718180E090E00E5F1F4F6D
:1011D000A4012ED2A82EA818FB2DFF77BF2EB6FE95
:1011E0000BC02B2D2E7FA51450F4B4FE0AC0B2FC08
:1011F00008C02B2D2E7E05C07A2C2B2D03C07A2CF7
:1012000001C0752C24FF0DC0FE01EA0DF11D808187
:10121000803311F4297E09C022FF06C073947394B1
:1012200004C0822F867809F0739423FD12C020FF3A
:1012300006C05A2C731418F4530C5718732C7314DB
:1012400060F4B70180E290E02C87C0D173942C85C4
:10125000F6CF731410F4371801C0312C24FF11C0DD
:10126000B70180E390E02C87B1D12C8522FF16C016
:1012700021FF03C088E590E002C088E790E0B70155
:101280000CC0822F867851F021FD02C080E201C09F
:101290008BE227FD8DE2B70190E098D1A51430F4E0
:1012A000B70180E390E092D15A94F8CFAA94F40168
:1012B000EA0DF11D8081B70190E088D1A110F6CF31
:1012C000332009F45DCEB70180E290E07FD13A94FB
:1012D000F7CFF7018681978102C08FEF9FEF2C96A1
:1012E0000FB6F894DEBF0FBECDBFDF91CF911F9137
:1012F0000F91FF90EF90DF90CF90BF90AF909F90B5
:101300008F907F906F905F904F903F902F900895B7
:101310000F931F93CF93DF93869F8001879F100DBC
:10132000969F100D1124C8010DD0EC01009721F0FB
:10133000A80160E070E038D1CE01DF91CF911F911C
:101340000F910895CF93DF938230910510F482E0DE
:1013500090E0E0915B03F0915C0320E030E0A0E0DE
:10136000B0E0309739F14081518148175907B8F002
:101370004817590771F482819381109729F01396C9
:101380009C938E9312972CC090935C0380935B0385
:1013900027C02115310531F04217530718F0A90174
:1013A000DB0101C0EF019A01BD01DF010280F38181
:1013B000E02DD7CF21153105F9F0281B390B24304A
:1013C000310580F48A819B816115710521F0FB0153
:1013D0009383828304C090935C0380935B03FE013C
:1013E000329644C0FE01E20FF31F81939193225085
:1013F0003109398328833AC02091590330915A0327
:10140000232B41F4209102023091030230935A03BE
:1014100020935903209100023091010221153105DA
:1014200041F42DB73EB74091040250910502241BB0
:10143000350BE0915903F0915A03E217F307A0F43A
:101440002E1B3F0B2817390778F0AC014E5F5F4F1A
:101450002417350748F04E0F5F1F50935A034093EF
:1014600059038193919302C0E0E0F0E0CF01DF9156
:10147000CF910895CF93DF93009709F487C0FC01C3
:10148000329713821282C0915B03D0915C03209744
:1014900081F420813181280F391F80915903909167
:1014A0005A038217930779F5F0935A03E09359038F
:1014B0006DC0DE0120E030E0AE17BF0750F4129699
:1014C0004D915C9113979D014115510509F1DA0188
:1014D000F3CFB383A28340815181840F951F8A1774
:1014E0009B0771F48D919C911197840F951F029623
:1014F0009183808312968D919C911397938382831D
:101500002115310529F4F0935C03E0935B033EC0A1
:10151000D9011396FC93EE9312974D915D91A40F10
:10152000B51FEA17FB0779F480819181840F951F1D
:101530000296D90111969C938E9382819381139682
:101540009C938E931297E0E0F0E08A819B81009754
:1015500019F0FE01EC01F9CFCE0102962881398104
:10156000820F931F2091590330915A03281739078E
:1015700069F4309729F410925C0310925B0302C067
:1015800013821282D0935A03C0935903DF91CF91F3
:101590000895FC010590615070400110D8F78095C6
:1015A00090958E0F9F1F0895DC0101C06D934150EF
:1015B0005040E0F70895FC01615070400190011027
:1015C000D8F7809590958E0F9F1F08950F931F93C6
:1015D000CF93DF93182F092FEB018B8181FD03C07F
:1015E0008FEF9FEF20C082FF10C04E815F812C8162
:1015F0003D81421753077CF4E881F9819F012F5FF9
:101600003F4F39832883108306C0E885F985812FF1
:101610001995892B29F72E813F812F5F3F4F3F83FB
:101620002E83812F902FDF91CF911F910F910895DD
:10163000FA01AA27283051F1203181F1E8946F9303
:101640006E7F6E5F7F4F8F4F9F4FAF4FB1E03ED0A9
:10165000B4E03CD0670F781F891F9A1FA11D680F47
:10166000791F8A1F911DA11D6A0F711D811D911D7A
:10167000A11D20D009F468943F912AE0269F1124EF
:101680003019305D3193DEF6CF010895462F477053
:10169000405D4193B3E00FD0C9F7F6CF462F4F70AE
:1016A000405D4A3318F0495D31FD4052419302D00C
:1016B000A9F7EACFB4E0A6959795879577956795B2
:1016C000BA95C9F700976105710508959B01AC01B2
:1016D0000A2E06945795479537952795BA95C9F7D9
:1016E000620F731F841F951FA01D0895F894FFCFEC
:1016F00000005D032000CDCC4C3EFFF843414E205E
:10170000696E6974696174696E672E2E2E0043419B
:101710004E20697320696E204E6F726D616C204D92
:101720006F64653A2025642E0A0043414E20697398
:1017300020696E204C6F6F706261636B204D6F6427
:10174000653A2025642E0A0043414E2069732069C2
:101750006E20436F6E666967204D6F64653A202581
:10176000642E0A0043414E20696E69746961746594
:101770006421004E6F646520323A0A49643A20259C
:10178000640A004C656E6774683A2025640A004458
:101790006174613A200025642C20004465746563FF
:1017A000742062616C6C3A2025640A00496E697489
:1017B00069616C697A696E67206E6F646520322E8C
:0E17C0002E2E004C697665733A2025640A00CF
:00000001FF
