S00D00004E6F6465322E737265635F
S1130000C2C00000DFC00000DDC00000DBC0000093
S1130010D9C00000D7C00000D5C00000D3C0000084
S1130020D1C00000CFC00000CDC00000CBC0000094
S1130030C9C00000C7C00000C5C00000C3C00000A4
S1130040C1C00000BFC00000BDC00000BBC00000B4
S1130050B9C00000B7C00000B5C00000B3C00000C4
S1130060B1C00000AFC00000ADC00000ABC00000D4
S1130070A9C00000A7C00000A5C00000A3C00000E4
S1130080A1C000009FC000009DC000009BC00000F4
S113009099C0000097C0000095C0000049C300004B
S11300A091C000008FC000008DC000008BC0000014
S11300B089C0000087C0000085C0000083C0000024
S11300C081C000007FC000007DC000007BC0000034
S11300D079C0000077C0000075C0000073C0000044
S11300E071C00000B30305040504050405040504F8
S11300F005040504B3030504050405040504050407
S113010005040504B50305040504050405040504F4
S11301100504050405040504050405040504050493
S113012005040504B50305040504050405040504D4
S11301300504050405040504050405040504050473
S11301400504050401040504050405040504050467
S113015005040504DE03050405040504050405047B
S11301600504050405040504050405040504050443
S113017005040504D2030504050405040504050467
S113018005040504F00311241FBECFEFD1E2DEBF46
S1130190CDBF00E00CBF12E0A0E0B2E0EAE5F1E17F
S11301A000E00BBF02C007900D92AE3CB107D9F737
S11301B023E0AEECB2E001C01D92A734B207E1F730
S11301C032D2C9C71DCFEAE7F0E080818768808317
S11301D0ECE7F0E080818064808380818F77808386
S11301E00895EF92FF920F931F93CF93DF93CDB7B0
S11301F0DEB7C656D1090FB6F894DEBF0FBECDBF29
S1130200FE01319626E6DF011D922A95E9F724E3E3
S113021033E0EEECF2E05081418181939193E21757
S1130220F30719F0852F942FF6CFBE016F5F7F4F30
S1130230DB01EEECF2E0819191918D939D93E217B5
S1130240F307C9F7AE0149595F4F7B01062F172FFA
S113025017C0D7018D919C9120813181821793071A
S113026028F4DB012D933C93918380833296E41729
S1130270F50779F7B2E0EB0EF11CE416F50621F070
S1130280E02FF12FB701E5CF8DA99EA9CA59DF4F01
S11302900FB6F894DEBF0FBECDBFDF91CF911F9193
S11302A00F91FF90EF900895ECE7F0E0908121E04A
S11302B030E002C0220F331F8A95E2F72370922B9D
S11302C09083EAE7F0E0808180648083808186FD0A
S11302D0FDCF809178009091790083CF0895482FC5
S11302E060EE8FE07DC108950BD290D187E092E05B
S11302F029D340E660E680E673D140E064E080E61E
S11303006FD143E06FEF8BE26BD180E0E8DF8EE0EA
S11303103CD1982F907E903481F09038D1F0911197
S113032023C01F928F9389E192E09F938F93F4D21D
S11303300F900F900F900F9017C01F928F9385E32B
S113034092E09F938F93E8D20F900F900F900F90AD
S11303500BC01F928F9383E592E09F938F93DCD21F
S11303600F900F900F900F908FE692E0EBC20895DC
S1130370EF92FF920F931F93CF93DF937C01FC01C5
S113038060816295660F607E82E30ED1F701608121
S113039066956695669581E307D1F701618185E3EA
S11303A003D1F7018181882391F087010E5F1F4FEC
S11303B0C0E0D0E0F80161918F018C2F8A5CF4D009
S11303C02196F701218130E0C217D3079CF381E81D
S11303D0FCD0DF91CF911F910F91FF90EF90089582
S11303E01F93CF93DF93EC018EE0CFD08C7019F183
S11303F081E6CBD0182F82E6C8D0110F110F110F50
S1130400829586958770182B188385E6BED08F70E9
S11304108983882361F010E086E6810FB6D0FE015F
S1130420E10FF11D82831F5F89811817A8F340E053
S113043061E08CE2D5D0DF91CF911F910895CF92E6
S1130440DF92EF92FF920F931F93CF93DF936C0190
S1130450FC0180811F928F938EE792E09F938F938C
S11304605BD2F60181811F928F938EE892E09F9375
S11304708F9352D28AE992E09F938F934DD2F601E3
S113048081812DB73EB7265F3F4F0FB6F8943EBF2C
S11304900FBE2DBF8823D9F0760132E0E30EF11CA4
S11304A0C0E0D0E001EA12E0F70181917F011F92E0
S11304B08F931F930F9330D22196F601218130E060
S11304C00F900F900F900F90C217D3076CF38AE030
S11304D090E033D2DF91CF911F910F91FF90EF9075
S11304E0DF90CF900895FC01828190E0EFC00895E1
S11304F080E0DADE0B9710F581E08093340380917D
S11305003C038F5F80933C0390E001979F938F930C
S113051086EA92E09F938F93FFD10F900F900F90F4
S11305200F9006C08FE39CE90197F1F700C000002B
S113053080E0BADE86309105A8F308951092340362
S11305400895EAE0F1E0808181608083EBE0F1E0EE
S11305508081816080830895FC018481882379F0FF
S1130560EBE0F1E0808181608083FFEF20E782E0AF
S1130570F15020408040E1F700C000000895EBE016
S1130580F1E080818E7F80830895CF93C82F81E02E
S1130590C8D083E0BDD08C2FBBD0BFD0C82F80E0A3
S11305A0C0D08C2FCF910895CF93DF93D82FC62F2F
S11305B081E0B7D082E0ACD08D2FAAD08C2FA8D008
S11305C080E0AFD0DF91CF910895CF93C82F81E021
S11305D0A8D08C2F81689CD080E0A3D0CF910895BF
S11305E01F93CF93DF93182FD62FC42F81E099D078
S11305F085E08ED0812F8CD08D2F8AD08C2F88D0FF
S113060080E08FD0DF91CF911F91089581E089D050
S113061080EC7ED08FE39CE90197F1F700C00000E5
S113062080E07FC00895CF93DF93CDB7DEB76497A2
S11306300FB6F894DEBF0FBECDBF0DD155DE26D068
S1130640C2DD7FDF82E0898381E08A8381EB92E0EF
S113065079D1CE010B96C4DECE010B96F0DECE012D
S11306600B9641DF45DFCE010B9676DF80913C038C
S11306708B83CE0101967CDE88EC92E063D18FE31C
S11306809CE90197F1F700C00000E3CFA0E9B0E0D6
S11306908C9183608C93E1E9F0E0808188618083B0
S11306A08DB188638DB984EA809399008FE080933B
S11306B098008C91886A8C938C918B7A8C9380812E
S11306C08260808380818A7F8083089524E1829F71
S11306D0C0011124885F984F883027E0920738F0D2
S11306E0863620E1920728F085E690E102C088E092
S11306F097E09C01332720939A0090939B000895E0
S113070084B1876884B92F9A8CB581658CBD0895AE
S11307108EBD0DB407FEFDCF089580E0F9DF8EB5E0
S11307200895813019F485B115B808952F9A089564
S11307301F920F920FB60F9211240BB60F922F93A4
S11307403F938F939F93AF93BF93EF93FF938091C6
S1130750B90090E0FC013897E135F10508F055C087
S1130760EE58FF4F89C010923503E0913503809114
S11307703703E81770F481E08E0F80933503F0E0BF
S1130780E85CFC4F80818093BB0085E88093BC00CB
S113079043C08091360381608093360384E980935B
S11307A0BC003AC0E091350381E08E0F809335039D
S11307B08091BB00F0E0E85CFC4F8083209135031E
S11307C030E08091370390E001972817390724F42B
S11307D085EC8093BC0020C085E88093BC001CC0DD
S11307E08091BB00E0913503F0E0E85CFC4F80832E
S11307F08091360381608093360384E98093BC0042
S11308000BC085EA8093BC0007C08091B900809337
S1130810060284E08093BC00FF91EF91BF91AF91F9
S11308209F918F913F912F910F900BBE0F900FBE10
S11308300F901F901895E0ECF0E0908195FFFDCFAC
S11308408093C6000895E0ECF0E080818823ECF703
S11308508091C60008951092C50087E68093C40075
S113086088E18093C10086E08093C20063E274E073
S11308708BE194E007C00895EE0FFF1F0590F491FB
S1130880E02D19940F931F93CF93DF93EC018B0109
S1130890009731F46115710519F480E090E037C0D8
S11308A06EE070E081E090E068D2FC010097A9F36B
S11308B080E883830115110571F01387028781E8AD
S11308C0838380913D0390913E03892B21F4F0931F
S11308D03E03E0933D032097C9F0D187C08783810D
S11308E08260838380913F0390914003892B71F44C
S11308F0F0934003E0933F038091410390914203BE
S1130900892B21F4F0934203E0934103CF01DF915B
S1130910CF911F910F910895CF93DF93CDB7DEB799
S1130920FE01369661917191AF0180913F039091E0
S1130930400335D0DF91CF91089560913F037091CA
S1130940400379C30F931F93CF93DF93E0913F0349
S1130950F0914003238121FF1BC0EC0100E010E073
S1130960899160913F0370914003DB011896ED91EA
S1130970FC911997882331F01995892B89F30FEF8E
S11309801FEFEECF8AE01995892B11F4C80102C03C
S11309908FEF9FEFDF91CF911F910F9108952F92C9
S11309A03F924F925F926F927F928F929F92AF92FB
S11309B0BF92CF92DF92EF92FF920F931F93CF9348
S11309C0DF93CDB7DEB72C970FB6F894DEBF0FBE1A
S11309D0CDBF7C016B018A01FC01178216828381E1
S11309E081FFB0C1CE0101964C01F7019381F6015C
S11309F093FD859193FF81916F01882309F49EC132
S1130A00853239F493FD859193FF81916F0185328D
S1130A1021F4B70190E00FD3E8CF512C312C20E022
S1130A202032A0F48B3269F030F4803259F08332F2
S1130A3069F420612CC08D3239F0803339F421609F
S1130A4026C02260246023C0286021C027FD27C05F
S1130A5030ED380F3A3078F426FF06C0FAE05F9E96
S1130A60300D1124532E13C08AE0389E300D11240A
S1130A70332E20620CC08E3221F426FD5FC1206427
S1130A8006C08C3611F4206802C0883641F4F601A1
S1130A9093FD859193FF81916F018111C1CF982FAF
S1130AA09F7D9554933028F40C5F1F4FFFE3F98327
S1130AB00DC0833631F0833771F0833509F057C0A8
S1130AC021C0F801808189830E5F1F4F4424439421
S1130AD0512C540114C03801F2E06F0E711CF8015E
S1130AE0A080B18026FF03C0652D70E002C06FEFC7
S1130AF07FEFC5012C8794D22C0183012C852F779D
S1130B00222E16C03801F2E06F0E711CF801A0808D
S1130B10B18026FF03C0652D70E002C06FEF7FEF48
S1130B20C5012C876BD22C012C852068222E8301D1
S1130B3023FC19C0832D90E048165906A0F4B70190
S1130B4080E290E078D23A94F5CFF50127FC8591C4
S1130B5027FE81915F01B70190E06DD231103A9484
S1130B60F1E04F1A51084114510479F7DEC084367C
S1130B7011F0893631F5F80127FF07C060817181D2
S1130B80828193810C5F1F4F08C060817181882727
S1130B9077FD8095982F0E5F1F4F2F76B22E97FF0B
S1130BA009C090958095709561957F4F8F4F9F4FA9
S1130BB02068B22E2AE030E0A4016FD2A82EA81833
S1130BC043C0853729F42F7EB22E2AE030E025C0B9
S1130BD0F22FF97FBF2E8F36C1F018F4883579F0E3
S1130BE0ADC0803719F0883721F0A8C02F2F2061BD
S1130BF0B22EB4FE0DC08B2D8460B82E09C024FF24
S1130C000AC09F2F9660B92E06C028E030E005C0C8
S1130C1020E130E002C020E132E0F801B7FE07C075
S1130C2060817181828193810C5F1F4F06C0608156
S1130C30718180E090E00E5F1F4FA4012ED2A82E98
S1130C40A818FB2DFF77BF2EB6FE0BC02B2D2E7FD1
S1130C50A51450F4B4FE0AC0B2FC08C02B2D2E7E9D
S1130C6005C07A2C2B2D03C07A2C01C0752C24FFCF
S1130C700DC0FE01EA0DF11D8081803311F4297E3F
S1130C8009C022FF06C07394739404C0822F86782F
S1130C9009F0739423FD12C020FF06C05A2C73146C
S1130CA018F4530C5718732C731460F4B70180E2D2
S1130CB090E02C87C0D173942C85F6CF731410F474
S1130CC0371801C0312C24FF11C0B70180E390E034
S1130CD02C87B1D12C8522FF16C021FF03C088E5E3
S1130CE090E002C088E790E0B7010CC0822F8678BC
S1130CF051F021FD02C080E201C08BE227FD8DE2AC
S1130D00B70190E098D1A51430F4B70180E390E0E6
S1130D1092D15A94F8CFAA94F401EA0DF11D80817E
S1130D20B70190E088D1A110F6CF332009F45DCE4D
S1130D30B70180E290E07FD13A94F7CFF701868142
S1130D40978102C08FEF9FEF2C960FB6F894DEBF09
S1130D500FBECDBFDF91CF911F910F91FF90EF9008
S1130D60DF90CF90BF90AF909F908F907F906F90C7
S1130D705F904F903F902F9008950F931F93CF93C0
S1130D80DF93869F8001879F100D969F100D11247D
S1130D90C8010DD0EC01009721F0A80160E070E0DB
S1130DA038D1CE01DF91CF911F910F910895CF9348
S1130DB0DF938230910510F482E090E0E0914503E6
S1130DC0F091460320E030E0A0E0B0E0309739F144
S1130DD04081518148175907B8F04817590771F4F1
S1130DE082819381109729F013969C938E93129786
S1130DF02CC0909346038093450327C021153105E9
S1130E0031F04217530718F0A901DB0101C0EF01CB
S1130E109A01BD01DF010280F381E02DD7CF2115B6
S1130E203105F9F0281B390B2430310580F48A810F
S1130E309B816115710521F0FB019383828304C0BA
S1130E409093460380934503FE01329644C0FE010D
S1130E50E20FF31F81939193225031093983288340
S1130E603AC02091430330914403232B41F4209151
S1130E7002023091030230934403209343032091F0
S1130E800002309101022115310541F42DB73EB71E
S1130E904091040250910502241B350BE091430359
S1130EA0F0914403E217F307A0F42E1B3F0B28171D
S1130EB0390778F0AC014E5F5F4F2417350748F0CF
S1130EC04E0F5F1F509344034093430381939193C8
S1130ED002C0E0E0F0E0CF01DF91CF910895CF931D
S1130EE0DF93009709F487C0FC01329713821282C2
S1130EF0C0914503D0914603209781F4208131812C
S1130F00280F391F8091430390914403821793075C
S1130F1079F5F0934403E09343036DC0DE0120E0D0
S1130F2030E0AE17BF0750F412964D915C911397C1
S1130F309D014115510509F1DA01F3CFB383A28371
S1130F4040815181840F951F8A179B0771F48D91FD
S1130F509C911197840F951F02969183808312961A
S1130F608D919C911397938382832115310529F4E4
S1130F70F0934603E09345033EC0D9011396FC93D6
S1130F80EE9312974D915D91A40FB51FEA17FB07DD
S1130F9079F480819181840F951F0296D90111966D
S1130FA09C938E938281938113969C938E93129734
S1130FB0E0E0F0E08A819B81009719F0FE01EC01EA
S1130FC0F9CFCE01029628813981820F931F209197
S1130FD04303309144032817390769F4309729F4FF
S1130FE0109246031092450302C013821282D093DA
S1130FF04403C0934303DF91CF910895FC0105900E
S1131000615070400110D8F7809590958E0F9F1F06
S11310100895DC0101C06D9341505040E0F70895FC
S1131020FC016150704001900110D8F780959095B3
S11310308E0F9F1F08950F931F93CF93DF93182F45
S1131040092FEB018B8181FD03C08FEF9FEF20C03F
S113105082FF10C04E815F812C813D81421753076E
S11310607CF4E881F9819F012F5F3F4F3983288306
S1131070108306C0E885F985812F1995892B29F7F6
S11310802E813F812F5F3F4F3F832E83812F902FEF
S1131090DF91CF911F910F910895FA01AA2728306B
S11310A051F1203181F1E8946F936E7F6E5F7F4F31
S11310B08F4F9F4FAF4FB1E03ED0B4E03CD0670FAD
S11310C0781F891F9A1FA11D680F791F8A1F911D00
S11310D0A11D6A0F711D811D911DA11D20D009F450
S11310E068943F912AE0269F11243019305D319392
S11310F0DEF6CF010895462F4770405D4193B3E07B
S11311000FD0C9F7F6CF462F4F70405D4A3318F021
S1131110495D31FD4052419302D0A9F7EACFB4E0D2
S1131120A6959795879577956795BA95C9F700978A
S11311306105710508959B01AC010A2E069457952B
S1131140479537952795BA95C9F7620F731F841F82
S10D1150951FA01D0895F894FFCF29
S113115A000047032000F843414E20696E69746910
S113116A6174696E672E2E2E0043414E20697320E6
S113117A696E204E6F726D616C204D6F64653A2002
S113118A25642E0A0043414E20697320696E204C5F
S113119A6F6F706261636B204D6F64653A202564DA
S11311AA2E0A0043414E20697320696E20436F6EF4
S11311BA666967204D6F64653A2025642E0A0043E8
S11311CA414E20696E6974696174656421004E6FC9
S11311DA646520323A0A49643A2025640A004C6557
S11311EA6E6774683A2025640A00446174613A207F
S11311FA0025642C200053636F72653A2025640A23
S113120A00496E697469616C697A696E67206E6FE8
S111121A646520322E2E2E005465737400007D
S9030000FC
