S00D00004E6F6465322E737265635F
S1130000C2C00000DFC00000DDC00000DBC0000093
S1130010D9C00000D7C00000D5C00000D3C0000084
S1130020D1C00000CFC00000CDC00000CBC0000094
S1130030C9C00000C7C00000C5C00000C3C00000A4
S1130040C1C00000BFC00000BDC00000BBC00000B4
S1130050B9C00000B7C00000B5C00000B3C00000C4
S1130060B1C00000AFC00000ADC00000ABC00000D4
S1130070A9C00000A7C00000A5C00000A3C00000E4
S1130080A1C000009FC000009DC000009BC00000F4
S113009099C0000097C0000095C000005FC2000036
S11300A091C000008FC000008DC000008BC0000014
S11300B089C0000087C0000085C0000083C0000024
S11300C081C000007FC000007DC000007BC0000034
S11300D079C0000077C0000075C0000073C0000044
S11300E071C00000C9021B031B031B031B031B037A
S11300F01B031B03C9021B031B031B031B031B035F
S11301001B031B03CB021B031B031B031B031B034C
S11301101B031B031B031B031B031B031B031B03EB
S11301201B031B03CB021B031B031B031B031B032C
S11301301B031B031B031B031B031B031B031B03CB
S11301401B031B0317031B031B031B031B031B03BF
S11301501B031B03F4021B031B031B031B031B03D3
S11301601B031B031B031B031B031B031B031B039B
S11301701B031B03E8021B031B031B031B031B03BF
S11301801B031B03060311241FBECFEFD1E2DEBF06
S1130190CDBF00E00CBF12E0A0E0B2E0ECE7FFE06E
S11301A000E00BBF02C007900D92AA3CB107D9F73B
S11301B022E0AAECB2E001C01D92AC3DB207E1F727
S11301C05CD1DAC61DCFEAE7F0E0808187688083DE
S11301D0ECE7F0E080818064808380818F77808386
S11301E00895482F60EE8FE0E2C0089595D1F5D0D0
S11301F087E092E0B8D240E660E680E6D8D040E0FE
S113020064E080E6D4D043E06FEF8BE2D0D080E0AE
S1130210E8DF8EE0A1D0982F907E903481F0903862
S1130220D1F0911123C01F928F9389E192E09F93A3
S11302308F9388D20F900F900F900F9017C01F923A
S11302408F9385E392E09F938F937CD20F900F90CE
S11302500F900F900BC01F928F9383E592E09F93B2
S11302608F9370D20F900F900F900F908FE692E0C3
S11302707AC20895EF92FF920F931F93CF93DF9367
S11302807C01FC0160816295660F607E82E373D01D
S1130290F701608166956695669581E36CD0F701F8
S11302A0618185E368D0F7018181882391F087011A
S11302B00E5F1F4FC0E0D0E0F80161918F018C2FD9
S11302C08A5C59D02196F701218130E0C217D30707
S11302D09CF381E861D0DF91CF911F910F91FF9042
S11302E0EF9008951F93CF93DF93EC018EE034D009
S11302F08C7019F181E630D0182F82E62DD0110FC1
S1130300110F110F829586958770182B188385E637
S113031023D08F708983882361F010E086E6810FF3
S11303201BD0FE01E10FF11D82831F5F8981181725
S1130330A8F340E061E08CE23AD0DF91CF911F91C5
S11303400895EAE0F1E0808181608083EBE0F1E0F0
S11303508081816080830895CF93C82F81E0EDD0A0
S113036083E0E2D08C2FE0D0E4D0C82F80E0E5D049
S11303708C2FCF910895CF93DF93D82FC62F81E090
S1130380DCD082E0D1D08D2FCFD08C2FCDD080E0A7
S1130390D4D0DF91CF910895CF93C82F81E0CDD0F1
S11303A08C2F8168C1D080E0C8D0CF9108951F936D
S11303B0CF93DF93182FD62FC42F81E0BED085E0D2
S11303C0B3D0812FB1D08D2FAFD08C2FADD080E0A2
S11303D0B4D0DF91CF911F91089581E0AED080EC2D
S11303E0A3D08FE39CE90197F1F700C0000080E0FF
S11303F0A4C008957894E1E0F1E080818261808373
S113040080818866808310920701E2E0F1E08081B8
S1130410806180830895CF93DF93E2E0F1E08081EF
S11304208F7D80838081877F808380EA8A95F1F73E
S11304308091060180818860808390EA9A95F1F723
S113044080910601C82F1F928F9326EA32E03F93D2
S11304502F9378D1E2E0F1E080818F7B80838FE27B
S113046092E00197F1F700C000000F900F900F90F9
S11304700F908C2FDF91CF910895CF93DF93CDB759
S1130480DEB764970FB6F894DEBF0FBECDBFF9D0C8
S1130490ADDE22D098DE55DFADDF56D082E0898311
S11304A081E08A8383EB92E05ED1CE010B961ADF62
S11304B08FE39CE90197F1F700C000008091D1021D
S11304C08B83CE010196D6DE8FE39CE90197F1F789
S11304D000C00000A0DFE9CFA0E9B0E08C91836008
S11304E08C93E1E9F0E08081886180838DB1886339
S11304F08DB984EA809399008FE0809398008C9161
S1130500886A8C938C918B7A8C93808182608083AF
S113051080818A7F8083089584B1876884B92F9A03
S11305208CB581658CBD08958EBD0DB407FEFDCFDD
S1130530089580E0F9DF8EB50895813019F485B10E
S113054015B808952F9A08958CE08093B8008FEF22
S11305508093BB0084E08093BC0008951F920F92A7
S11305600FB60F9211240BB60F922F933F938F93D4
S11305709F93AF93BF93EF93FF938091B90090E063
S1130580FC013897E135F10508F055C0EE58FF4FEE
S113059089C01092CA02E091CA028091CC02E81785
S11305A070F481E08E0F8093CA02F0E0E353FD4FB4
S11305B080818093BB0085E88093BC0043C0809118
S11305C0CB0281608093CB0284E98093BC003AC063
S11305D0E091CA0281E08E0F8093CA028091BB0031
S11305E0F0E0E353FD4F80832091CA0230E0809114
S11305F0CC0290E001972817390724F485EC809306
S1130600BC0020C085E88093BC001CC08091BB0066
S1130610E091CA02F0E0E353FD4F80838091CB0266
S113062081608093CB0284E98093BC000BC085EA8F
S11306308093BC0007C08091B9008093060284E0D7
S11306408093BC00FF91EF91BF91AF919F918F91E7
S11306503F912F910F900BBE0F900FBE0F901F90E4
S11306601895E0ECF0E0908195FFFDCF8093C600F3
S11306700895E0ECF0E080818823ECF78091C600D7
S113068008951092C50087E68093C40088E18093A2
S1130690C10086E08093C20069E373E081E393E0E4
S11306A007C00895EE0FFF1F0590F491E02D1994F3
S11306B00F931F93CF93DF93EC018B01009731F4D9
S11306C06115710519F480E090E037C06EE070E0C8
S11306D081E090E063D2FC010097A9F380E8838372
S11306E00115110571F01387028781E883838091D6
S11306F0D2029091D302892B21F4F093D302E09398
S1130700D2022097C9F0D187C08783818260838316
S11307108091D4029091D502892B71F4F093D50283
S1130720E093D4028091D6029091D702892B21F4D0
S1130730F093D702E093D602CF01DF91CF911F91BE
S11307400F910895CF93DF93CDB7DEB7FE013696B0
S113075061917191AF018091D4029091D50230D012
S1130760DF91CF9108950F931F93CF93DF93E0917F
S1130770D402F091D502238121FF1BC0EC0100E0DB
S113078010E089916091D4027091D502DB01189632
S1130790ED91FC911997882331F01995892B89F3F0
S11307A00FEF1FEFEECF8AE01995892B11F4C801E2
S11307B002C08FEF9FEFDF91CF911F910F910895AA
S11307C02F923F924F925F926F927F928F929F925D
S11307D0AF92BF92CF92DF92EF92FF920F931F934B
S11307E0CF93DF93CDB7DEB72C970FB6F894DEBF67
S11307F00FBECDBF7C016B018A01FC0117821682FA
S1130800838181FFB0C1CE0101964C01F701938130
S1130810F60193FD859193FF81916F01882309F47B
S11308209EC1853239F493FD859193FF81916F01C7
S1130830853221F4B70190E00FD3E8CF512C312C4D
S113084020E02032A0F48B3269F030F4803259F089
S1130850833269F420612CC08D3239F0803339F44D
S1130860216026C02260246023C0286021C027FDA7
S113087027C030ED380F3A3078F426FF06C0FAE08E
S11308805F9E300D1124532E13C08AE0389E300D24
S11308901124332E20620CC08E3221F426FD5FC158
S11308A0206406C08C3611F4206802C0883641F4F6
S11308B0F60193FD859193FF81916F018111C1CF61
S11308C0982F9F7D9554933028F40C5F1F4FFFE3BE
S11308D0F9830DC0833631F0833771F0833509F025
S11308E057C021C0F801808189830E5F1F4F4424C3
S11308F04394512C540114C03801F2E06F0E711C62
S1130900F801A080B18026FF03C0652D70E002C00D
S11309106FEF7FEFC5012C8794D22C0183012C85C6
S11309202F77222E16C03801F2E06F0E711CF801E9
S1130930A080B18026FF03C0652D70E002C06FEF78
S11309407FEFC5012C876BD22C012C852068222EC9
S1130950830123FC19C0832D90E048165906A0F4A6
S1130960B70180E290E078D23A94F5CFF50127FC04
S1130970859127FE81915F01B70190E06DD231101E
S11309803A94F1E04F1A51084114510479F7DEC04A
S1130990843611F0893631F5F80127FF07C06081EC
S11309A07181828193810C5F1F4F08C060817181C6
S11309B0882777FD8095982F0E5F1F4F2F76B22ED4
S11309C097FF09C090958095709561957F4F8F4FE3
S11309D09F4F2068B22E2AE030E0A4016FD2A82EE7
S11309E0A81843C0853729F42F7EB22E2AE030E0C0
S11309F025C0F22FF97FBF2E8F36C1F018F4883549
S1130A0079F0ADC0803719F0883721F0A8C02F2FB6
S1130A102061B22EB4FE0DC08B2D8460B82E09C0A7
S1130A2024FF0AC09F2F9660B92E06C028E030E04C
S1130A3005C020E130E002C020E132E0F801B7FE59
S1130A4007C060817181828193810C5F1F4F06C052
S1130A506081718180E090E00E5F1F4FA4012ED26F
S1130A60A82EA818FB2DFF77BF2EB6FE0BC02B2D8A
S1130A702E7FA51450F4B4FE0AC0B2FC08C02B2D7E
S1130A802E7E05C07A2C2B2D03C07A2C01C0752C28
S1130A9024FF0DC0FE01EA0DF11D8081803311F4A5
S1130AA0297E09C022FF06C07394739404C0822F68
S1130AB0867809F0739423FD12C020FF06C05A2CD7
S1130AC0731418F4530C5718732C731460F4B7018F
S1130AD080E290E02C87C0D173942C85F6CF7314F8
S1130AE010F4371801C0312C24FF11C0B70180E382
S1130AF090E02C87B1D12C8522FF16C021FF03C0C2
S1130B0088E590E002C088E790E0B7010CC0822F2E
S1130B10867851F021FD02C080E201C08BE227FDFE
S1130B208DE2B70190E098D1A51430F4B70180E3C9
S1130B3090E092D15A94F8CFAA94F401EA0DF11DF1
S1130B408081B70190E088D1A110F6CF332009F459
S1130B505DCEB70180E290E07FD13A94F7CFF70100
S1130B608681978102C08FEF9FEF2C960FB6F89481
S1130B70DEBF0FBECDBFDF91CF911F910F91FF90CC
S1130B80EF90DF90CF90BF90AF909F908F907F9029
S1130B906F905F904F903F902F9008950F931F9305
S1130BA0CF93DF93869F8001879F100D969F100D32
S1130BB01124C8010DD0EC01009721F0A80160E0D8
S1130BC070E038D1CE01DF91CF911F910F9108953C
S1130BD0CF93DF938230910510F482E090E0E091AE
S1130BE0DA02F091DB0220E030E0A0E0B0E03097E0
S1130BF039F14081518148175907B8F0481759070E
S1130C0071F482819381109729F013969C938E93AB
S1130C1012972CC09093DB028093DA0227C021152F
S1130C20310531F04217530718F0A901DB0101C067
S1130C30EF019A01BD01DF010280F381E02DD7CFDE
S1130C4021153105F9F0281B390B2430310580F4C6
S1130C508A819B816115710521F0FB019383828355
S1130C6004C09093DB028093DA02FE01329644C002
S1130C70FE01E20FF31F81939193225031093983CE
S1130C8028833AC02091D8023091D902232B41F411
S1130C9020910202309103023093D9022093D802AA
S1130CA020910002309101022115310541F42DB744
S1130CB03EB74091040250910502241B350BE0918C
S1130CC0D802F091D902E217F307A0F42E1B3F0BD0
S1130CD02817390778F0AC014E5F5F4F24173507AA
S1130CE048F04E0F5F1F5093D9024093D80281936E
S1130CF0919302C0E0E0F0E0CF01DF91CF9108953D
S1130D00CF93DF93009709F487C0FC0132971382D5
S1130D101282C091DA02D091DB02209781F4208103
S1130D203181280F391F8091D8029091D9028217FE
S1130D30930779F5F093D902E093D8026DC0DE01F0
S1130D4020E030E0AE17BF0750F412964D915C914D
S1130D5013979D014115510509F1DA01F3CFB383CE
S1130D60A28340815181840F951F8A179B0771F4D8
S1130D708D919C911197840F951F02969183808386
S1130D8012968D919C91139793838283211531053B
S1130D9029F4F093DB02E093DA023EC0D901139602
S1130DA0FC93EE9312974D915D91A40FB51FEA1732
S1130DB0FB0779F480819181840F951F0296D901F4
S1130DC011969C938E938281938113969C938E9318
S1130DD01297E0E0F0E08A819B81009719F0FE0110
S1130DE0EC01F9CFCE01029628813981820F931F3D
S1130DF02091D8023091D9022817390769F4309725
S1130E0029F41092DB021092DA0202C013821282D9
S1130E10D093D902C093D802DF91CF910895FC01F9
S1130E200590615070400110D8F7809590958E0F11
S1130E309F1F0895DC0101C06D9341505040E0F7BD
S1130E400895FC016150704001900110D8F780951D
S1130E5090958E0F9F1F08950F931F93CF93DF9349
S1130E60182F092FEB018B8181FD03C08FEF9FEFBA
S1130E7020C082FF10C04E815F812C813D814217CA
S1130E8053077CF4E881F9819F012F5F3F4F398339
S1130E902883108306C0E885F985812F1995892B4D
S1130EA029F72E813F812F5F3F4F3F832E83812F70
S1130EB0902FDF91CF911F910F910895FA01AA27E6
S1130EC0283051F1203181F1E8946F936E7F6E5F89
S1130ED07F4F8F4F9F4FAF4FB1E03ED0B4E03CD037
S1130EE0670F781F891F9A1FA11D680F791F8A1F1A
S1130EF0911DA11D6A0F711D811D911DA11D20D081
S1130F0009F468943F912AE0269F11243019305D3A
S1130F103193DEF6CF010895462F4770405D41932B
S1130F20B3E00FD0C9F7F6CF462F4F70405D4A3378
S1130F3018F0495D31FD4052419302D0A9F7EACF40
S1130F40B4E0A6959795879577956795BA95C9F76F
S1130F5000976105710508959B01AC010A2E069462
S1130F605795479537952795BA95C9F7620F731F1B
S10F0F70841F951FA01D0895F894FFCF66
S1130F7C0000DC022000F843414E20696E6974695C
S1130F8C6174696E672E2E2E0043414E20697320C6
S1130F9C696E204E6F726D616C204D6F64653A20E2
S1130FAC25642E0A0043414E20697320696E204C3F
S1130FBC6F6F706261636B204D6F64653A202564BA
S1130FCC2E0A0043414E20697320696E20436F6ED4
S1130FDC666967204D6F64653A2025642E0A0043C8
S1130FEC414E20696E6974696174656421004E6FA9
S1130FFC646520323A0A49643A2025640A004C6537
S113100C6E6774683A2025640A00446174613A205E
S113101C0025642C2000456E636F6465723A2025AC
S113102C640A00496E697469616C697A696E672037
S10D103C6E6F646520322E2E2E0024
S9030000FC
