S00D00004E6F6465322E737265635F
S1130000C2C00000E0C00000DEC00000DCC0000090
S1130010DAC00000D8C00000D6C00000D4C0000080
S1130020D2C00000D0C00000CEC00000CCC0000090
S1130030CAC00000C8C00000C6C00000C4C00000A0
S1130040C2C00000C0C00000BEC00000BCC00000B0
S1130050BAC00000B8C00000B6C00000B4C00000C0
S1130060B2C00000B0C00000AEC00000ACC00000D0
S1130070AAC00000A8C00000A6C00000A4C00000E0
S1130080A2C00000A0C000009EC000009CC00000F0
S11300909AC0000098C0000096C000005BC3000036
S11300A092C0000090C000008EC000008CC0000010
S11300B08AC0000088C0000086C0000084C0000020
S11300C082C0000080C000007EC000007CC0000030
S11300D07AC0000078C0000076C0000074C0000040
S11300E072C00000C503170417041704170417048B
S11300F017041704C5031704170417041704170477
S113010017041704C7031704170417041704170464
S11301101704170417041704170417041704170403
S113012017041704C7031704170417041704170444
S113013017041704170417041704170417041704E3
S113014017041704130417041704170417041704D7
S113015017041704F00317041704170417041704EB
S113016017041704170417041704170417041704B3
S113017017041704E40317041704170417041704D7
S113018017041704020411241FBECFEFD1E2DEBF0F
S1130190CDBF00E00CBF13E0A0E0B2E0E6E0F4E184
S11301A000E00BBF02C007900D92A430B107D9F74D
S11301B023E0A4E0B3E001C01D92AA31B207E1F745
S11301C017D20C94010A1CCFEAE7F0E0808187681B
S11301D08083ECE7F0E080818064808380818F7786
S11301E080830895482F60EE8FE0FFC008956ED29B
S11301F012D188E092E0FCD440E660E680E6F5D0D7
S113020040E064E080E6F1D043E06FEF8BE2EDD0B4
S113021080E0E8DF8EE0BED0982F907E903481F0AD
S11302209038D1F0911123C01F928F938AE192E00C
S11302309F938F93CCD40F900F900F900F9017C073
S11302401F928F9386E392E09F938F93C0D40F9075
S11302500F900F900F900BC01F928F9384E592E044
S11302609F938F93B4D40F900F900F900F9080E7CB
S113027092E0BEC40895EF92FF920F931F93CF9321
S1130280DF937C01FC0160816295660F607E82E3EE
S113029090D0F701608166956695669581E389D073
S11302A0F701618185E385D0F7018181882391F08D
S11302B087010E5F1F4FC0E0D0E0F80161918F010C
S11302C08C2F8A5C76D02196F701218130E0C21709
S11302D0D3079CF381E87ED0DF91CF911F910F91DA
S11302E0FF90EF9008951F93CF93DF93EC018EE07E
S11302F051D08C7019F181E64DD0182F82E64AD086
S1130300110F110F110F829586958770182B188382
S113031085E640D08F708983882361F010E086E6FB
S1130320810F38D0FE01E10FF11D82831F5F8981A7
S11303301817A8F340E061E08CE257D0DF91CF9129
S11303401F910895FC01828190E0A6C10895CF9386
S1130350DF9300D0CDB7DEB7909104039770990F67
S11303609065998387708A836B8363E0CE010196DD
S1130370CFD10F900F900F90DF91CF910895EAE0C5
S1130380F1E0808181608083EBE0F1E08081816035
S113039080830895CF93C82F81E0A9D183E09ED1B3
S11303A08C2F9CD1A0D1C82F80E0A1D18C2FCF91CC
S11303B00895CF93DF93D82FC62F81E098D182E0A0
S11303C08DD18D2F8BD18C2F89D180E090D1DF916D
S11303D0CF910895CF93C82F81E089D18C2F816864
S11303E07DD180E084D1CF9108951F93CF93DF9383
S11303F0182FD62FC42F81E07AD185E06FD1812FB9
S11304006DD18D2F6BD18C2F69D180E070D1DF91AC
S1130410CF911F91089581E06AD180EC5FD18FE381
S11304209CE90197F1F700C0000080E060C10895E5
S1130430E2E0F1E080818F7B80838AE68A95F1F7A0
S113044000C080818064808387EA92E0D1C30895EC
S11304507894E1E0F1E08081826180838081886624
S11304608083E2E0F1E0808180618083808180622A
S11304708083808180648083DBCF0895882331F07A
S1130480E2E0F1E080818D7F80830895E2E0F1E095
S11304908081826080830895E2E0F1E080818F7D35
S11304A080838081877F80838AE68A95F1F700C004
S11304B0209106018081886080838AE68A95F1F71D
S11304C000C08091060190E0922B909306038093E4
S11304D0050308958F929F92BF92CF92DF92EF927D
S11304E0FF920F931F93CF93DF93682F70E080E008
S11304F090E007D220E030E040EA52E48ED2CED140
S11305006B017C01C9DFEC0199231CF4D195C195E1
S1130510D10986010C1B1D0BB0900703B00EB092DD
S11305200703B801882777FD8095982FEAD126E63E
S113053036E646E65FE371D2B1D12B2D332727FD92
S113054030954901860E971E9F928F923F93BF92DA
S11305501F930F93DF92CF92DF93CF9385EB92E0BB
S11305609F938F9334D38DB79EB70C960FB6F894A0
S11305709EBF0FBE8DBFC401DF91CF911F910F911C
S1130580FF90EF90DF90CF90BF909F908F90089551
S11305900F931F93CF93DF93FC0180819BDF64E172
S11305A070E09ED2EB018B0177231CF481E066DFBF
S11305B002C080E063DF8091060290E09E01112377
S11305C024F4222733272C1B3D0B821793070CF0AE
S11305D0CE01BC01992324F466277727681B790B85
S11305E080E090E0B4DEDF91CF911F910F910895E8
S11305F0CF93DF93CDB7DEB764970FB6F894DEBF21
S11306000FBECDBF3AD1F3DD27D0DEDDB8DE20DF6B
S113061075D082E0898381E08A838DEE92E0E8D20E
S1130620CE010B9660DE8FE39CE90197F1F700C0E1
S11306300000CE010B9686DE80910F038B83CE01E2
S1130640019619DE8FE39CE90197F1F700C00000E1
S1130650CE0140969DDFE4CFA0E9B0E08C918360A9
S11306608C93E1E9F0E08081886180838DB18863B7
S11306708DB984EA809399008FE0809398008C91DF
S1130680886A8C938C918B7A8C938081826080832E
S113069080818A7F8083089524E1829FC001112490
S11306A0885F984F883027E0920738F0863620E13B
S11306B0920728F085E690E102C088E097E09C016B
S11306C0332720939A0090939B00089584B1876800
S11306D084B92F9A8CB581658CBD08958EBD0DB4F7
S11306E007FEFDCF089580E0F9DF8EB508958130CF
S11306F019F485B115B808952F9A08958CE0809364
S1130700B8008FEF8093BB0084E08093BC00089511
S1130710ECEBF0E0208120FDFDCF60930A03FC01A7
S1130720208120930B0320FD0CC0623050F0DC01CB
S11307301196ECE0F3E081E09D9191938F5F861335
S1130740FBCF1092090388EF8093070285EA809318
S1130750BC0008951F920F920FB60F9211240BB68E
S11307600F922F933F938F939F93AF93BF93EF93E6
S1130770FF938091B90090E0FC013897E135F105D1
S113078008F055C0EE58FF4FBEC110920803E09127
S1130790080380910A03E81770F481E08E0F8093B8
S11307A00803F0E0E55FFC4F80818093BB0085E89F
S11307B08093BC0043C08091090381608093090346
S11307C084E98093BC003AC0E091080381E08E0F75
S11307D0809308038091BB00F0E0E55FFC4F8083C9
S11307E02091080330E080910A0390E001972817D4
S11307F0390724F485EC8093BC0020C085E88093FD
S1130800BC001CC08091BB00E0910803F0E0E55FF0
S1130810FC4F80838091090381608093090384E9FC
S11308208093BC000BC085EA8093BC0007C0809114
S1130830B9008093070284E08093BC00FF91EF919C
S1130840BF91AF919F918F913F912F910F900BBECC
S11308500F900FBE0F901F901895E0ECF0E0908180
S113086095FFFDCF8093C6000895E0ECF0E0808111
S11308708823ECF78091C60008951092C50087E69E
S11308808093C40088E18093C10086E08093C20015
S113089065E374E08DE294E050C1089504D0689457
S11308A0B111B5C0089598D088F09F5790F0B92F32
S11308B09927B751A0F0D1F0660F771F881F991FB1
S11308C01AF0BA95C9F712C0B13081F09FD0B1E0E7
S11308D008959CC0672F782F8827B85F39F0B93FF7
S11308E0CCF3869577956795B395D9F73EF49095B3
S11308F08095709561957F4F8F4F9F4F0895E89431
S113090009C097FB3EF490958095709561957F4F53
S11309108F4F9F4F9923A9F0F92F96E9BB27939501
S1130920F695879577956795B795F111F8CFFAF411
S1130930BB0F11F460FF1BC06F5F7F4F8F4F9F4F42
S113094016C0882311F096E911C0772321F09EE8A0
S1130950872F762F05C0662371F096E8862F70E006
S113096060E02AF09A95660F771F881FDAF7880FE0
S11309709695879597F9089597F99F6780E870E0B1
S113098060E008959FEF80EC089500240A94161601
S1130990170618060906089500240A941216130669
S11309A0140605060895092E0394000C11F48823F7
S11309B052F0BB0F40F4BF2B11F460FF04C06F5F13
S11309C07F4F8F4F9F4F089557FD9058440F551FE9
S11309D059F05F3F71F04795880F97FB991F61F0BD
S11309E09F3F79F087950895121613061406551F34
S11309F0F2CF4695F1DF08C0161617061806991FA0
S1130A00F1CF86957105610508940895E894BB2794
S1130A1066277727CB0197F908950BD0C4CFB5DFAC
S1130A2028F0BADF18F0952309F0A6CFABCF112434
S1130A30EECFCADFA0F3959FD1F3950F50E0551F79
S1130A40629FF001729FBB27F00DB11D639FAA271F
S1130A50F00DB11DAA1F649F6627B00DA11D661F6E
S1130A60829F2227B00DA11D621F739FB00DA11D8F
S1130A70621F839FA00D611D221F749F3327A00D49
S1130A80611D231F849F600D211D822F762F6A2FE5
S1130A9011249F5750408AF0E1F088234AF0EE0F6A
S1130AA0FF1FBB1F661F771F881F91505040A9F777
S1130AB09E3F510570F060CFAACF5F3FECF3983EA4
S1130AC0DCF3869577956795B795F795E7959F5FDE
S1130AD0C1F7FE2B880F911D9695879597F9089578
S1130AE097FB072E16F4009406D077FD08D011D09A
S1130AF007FC05D03EF4909581959F4F089570951D
S1130B0061957F4F0895EE0FFF1F0590F491E02D3E
S1130B101994AA1BBB1B51E107C0AA1FBB1FA61730
S1130B20B70710F0A61BB70B881F991F5A95A9F792
S1130B3080959095BC01CD0108950F931F93CF9399
S1130B40DF93EC018B01009731F46115710519F401
S1130B5080E090E037C06EE070E081E090E063D226
S1130B60FC010097A9F380E883830115110571F056
S1130B701387028781E88383809110039091110386
S1130B80892B21F4F0931103E09310032097C9F00B
S1130B90D187C0878381826083838091120390917F
S1130BA01303892B71F4F0931303E09312038091E0
S1130BB0140390911503892B21F4F0931503E0930A
S1130BC01403CF01DF91CF911F910F910895CF931B
S1130BD0DF93CDB7DEB7FE01369661917191AF0117
S1130BE0809112039091130330D0DF91CF91089537
S1130BF00F931F93CF93DF93E0911203F0911303AC
S1130C00238121FF1BC0EC0100E010E08991609179
S1130C10120370911303DB011896ED91FC9119975F
S1130C20882331F01995892B89F30FEF1FEFEECF4D
S1130C308AE01995892B11F4C80102C08FEF9FEF48
S1130C40DF91CF911F910F9108952F923F924F9270
S1130C505F926F927F928F929F92AF92BF92CF9248
S1130C60DF92EF92FF920F931F93CF93DF93CDB751
S1130C70DEB72C970FB6F894DEBF0FBECDBF7C0154
S1130C806B018A01FC0117821682838181FFB0C146
S1130C90CE0101964C01F7019381F60193FD8591F4
S1130CA093FF81916F01882309F49EC1853239F441
S1130CB093FD859193FF81916F01853221F4B701F2
S1130CC090E00FD3E8CF512C312C20E02032A0F457
S1130CD08B3269F030F4803259F0833269F4206148
S1130CE02CC08D3239F0803339F4216026C0226063
S1130CF0246023C0286021C027FD27C030ED380FB1
S1130D003A3078F426FF06C0FAE05F9E300D1124D5
S1130D10532E13C08AE0389E300D1124332E2062E6
S1130D200CC08E3221F426FD5FC1206406C08C36CF
S1130D3011F4206802C0883641F4F60193FD8591D0
S1130D4093FF81916F018111C1CF982F9F7D95549D
S1130D50933028F40C5F1F4FFFE3F9830DC08336F3
S1130D6031F0833771F0833509F057C021C0F801A1
S1130D70808189830E5F1F4F44244394512C540176
S1130D8014C03801F2E06F0E711CF801A080B1802C
S1130D9026FF03C0652D70E002C06FEF7FEFC50131
S1130DA02C8794D22C0183012C852F77222E16C0F8
S1130DB03801F2E06F0E711CF801A080B18026FFAB
S1130DC003C0652D70E002C06FEF7FEFC5012C8773
S1130DD06BD22C012C852068222E830123FC19C0A0
S1130DE0832D90E048165906A0F4B70180E290E004
S1130DF078D23A94F5CFF50127FC859127FE8191AD
S1130E005F01B70190E06DD231103A94F1E04F1ACE
S1130E1051084114510479F7DEC0843611F0893643
S1130E2031F5F80127FF07C06081718182819381C8
S1130E300C5F1F4F08C060817181882777FD809502
S1130E40982F0E5F1F4F2F76B22E97FF09C09095F3
S1130E508095709561957F4F8F4F9F4F2068B22E7C
S1130E602AE030E0A4016FD2A82EA81843C0853729
S1130E7029F42F7EB22E2AE030E025C0F22FF97F2C
S1130E80BF2E8F36C1F018F4883579F0ADC08037A5
S1130E9019F0883721F0A8C02F2F2061B22EB4FE9C
S1130EA00DC08B2D8460B82E09C024FF0AC09F2F6B
S1130EB09660B92E06C028E030E005C020E130E09D
S1130EC002C020E132E0F801B7FE07C06081718101
S1130ED0828193810C5F1F4F06C06081718180E025
S1130EE090E00E5F1F4FA4012ED2A82EA818FB2D50
S1130EF0FF77BF2EB6FE0BC02B2D2E7FA51450F40A
S1130F00B4FE0AC0B2FC08C02B2D2E7E05C07A2C7C
S1130F102B2D03C07A2C01C0752C24FF0DC0FE01BB
S1130F20EA0DF11D8081803311F4297E09C022FF6E
S1130F3006C07394739404C0822F867809F0739466
S1130F4023FD12C020FF06C05A2C731418F4530C4E
S1130F505718732C731460F4B70180E290E02C8767
S1130F60C0D173942C85F6CF731410F4371801C0D4
S1130F70312C24FF11C0B70180E390E02C87B1D15C
S1130F802C8522FF16C021FF03C088E590E002C033
S1130F9088E790E0B7010CC0822F867851F021FDDC
S1130FA002C080E201C08BE227FD8DE2B70190E030
S1130FB098D1A51430F4B70180E390E092D15A940B
S1130FC0F8CFAA94F401EA0DF11D8081B70190E0F5
S1130FD088D1A110F6CF332009F45DCEB70180E2A9
S1130FE090E07FD13A94F7CFF7018681978102C0D0
S1130FF08FEF9FEF2C960FB6F894DEBF0FBECDBFD8
S1131000DF91CF911F910F91FF90EF90DF90CF90E0
S1131010BF90AF909F908F907F906F905F904F9014
S11310203F902F9008950F931F93CF93DF93869F44
S11310308001879F100D969F100D1124C8010DD0BB
S1131040EC01009721F0A80160E070E038D1CE01F6
S1131050DF91CF911F910F910895CF93DF93823049
S1131060910510F482E090E0E0911803F0911903E7
S113107020E030E0A0E0B0E0309739F140815181C8
S113108048175907B8F04817590771F482819381BA
S1131090109729F013969C938E9312972CC09093DB
S11310A019038093180327C02115310531F0421725
S11310B0530718F0A901DB0101C0EF019A01BD013A
S11310C0DF010280F381E02DD7CF21153105F9F03E
S11310D0281B390B2430310580F48A819B816115EA
S11310E0710521F0FB019383828304C0909319035B
S11310F080931803FE01329644C0FE01E20FF31FF1
S11311008193919322503109398328833AC02091E5
S1131110160330911703232B41F4209102023091DE
S11311200302309317032093160320910002309199
S113113001022115310541F42DB73EB74091040257
S113114050910502241B350BE0911603F09117030F
S1131150E217F307A0F42E1B3F0B2817390778F08A
S1131160AC014E5F5F4F2417350748F04E0F5F1FE9
S113117050931703409316038193919302C0E0E0C8
S1131180F0E0CF01DF91CF910895CF93DF930097E3
S113119009F487C0FC01329713821282C0911803AC
S11311A0D0911903209781F420813181280F391FB0
S11311B080911603909117038217930779F5F093A2
S11311C01703E09316036DC0DE0120E030E0AE1794
S11311D0BF0750F412964D915C9113979D014115F0
S11311E0510509F1DA01F3CFB383A2834081518120
S11311F0840F951F8A179B0771F48D919C91119709
S1131200840F951F02969183808312968D919C91F1
S11312101397938382832115310529F4F0931903DD
S1131220E09318033EC0D9011396FC93EE931297F2
S11312304D915D91A40FB51FEA17FB0779F48081E6
S11312409181840F951F0296D90111969C938E93D8
S11312508281938113969C938E931297E0E0F0E041
S11312608A819B81009719F0FE01EC01F9CFCE0130
S1131270029628813981820F931F209116033091A1
S113128017032817390769F4309729F410921903C2
S11312901092180302C013821282D0931703C093D2
S11312A01603DF91CF910895FC01059061507040C1
S11312B00110D8F7809590958E0F9F1F0895DC013B
S11312C001C06D9341505040E0F70895FC01615016
S11312D0704001900110D8F7809590958E0F9F1F54
S11312E008950F931F93CF93DF93182F092FEB01CA
S11312F08B8181FD03C08FEF9FEF20C082FF10C060
S11313004E815F812C813D81421753077CF4E88133
S1131310F9819F012F5F3F4F39832883108306C0D3
S1131320E885F985812F1995892B29F72E813F812D
S11313302F5F3F4F3F832E83812F902FDF91CF91DB
S11313401F910F910895FA01AA27283051F12031F5
S113135081F1E8946F936E7F6E5F7F4F8F4F9F4F45
S1131360AF4FB1E03ED0B4E03CD0670F781F891F87
S11313709A1FA11D680F791F8A1F911DA11D6A0F55
S1131380711D811D911DA11D20D009F468943F9108
S11313902AE0269F11243019305D3193DEF6CF0107
S11313A00895462F4770405D4193B3E00FD0C9F7CD
S11313B0F6CF462F4F70405D4A3318F0495D31FD3A
S11313C04052419302D0A9F7EACFB4E0A69597958D
S11313D0879577956795BA95C9F700976105710563
S11313E008959B01AC010A2E0694579547953795AD
S11313F02795BA95C9F7620F731F841F951FA01D07
S10914000895F894FFCFEB
S113140600001A032000FFF843414E20696E6974F8
S1131416696174696E672E2E2E0043414E206973EE
S113142620696E204E6F726D616C204D6F64653A53
S11314362025642E0A0043414E20697320696E20DC
S11314464C6F6F706261636B204D6F64653A202543
S1131456642E0A0043414E20697320696E20436F4F
S11314666E666967204D6F64653A2025642E0A000E
S113147643414E20696E6974696174656421004E46
S11314866F646520323A0A49643A2025640A004C9E
S1131496656E6774683A2025640A00446174613A8B
S11314A6200025642C2000456E636F64657220520B
S11314B6657365740045723A2025640909536B61A6
S11314C66C3A20256409094572726F723A202564C4
S11314D609094572726F722073756D3A2025640985
S11314E6094F75747075743A2025640A00496E694B
S11314F67469616C697A696E67206E6F64652032FF
S10715062E2E2E0053
S9030000FC
